:020000040800F2
:10000000A0050020D9000008831B00087314000815
:1000100000000000000000000000000000000000E0
:10002000000000000000000000000000511D00085A
:100030000000000000000000FD1B0008531D000828
:10004000000000000000000000000000EB000008BD
:10005000EB000008EB000008EB000008EB000008D4
:100060000000000000000000000000000000000090
:10007000EB000008EB000008EB00000800000000A7
:1000800000000000EB00000800000000000000007D
:1000900000000000EB00000800000000EB0000087A
:1000A00000000000EB00000800000000252200080E
:1000B0000000000000000000000000000000000040
:1000C0000448854600F052F80048004791010008B6
:1000D000C046C046A00500200448804704480047A9
:1000E000FEE7FEE7FEE7FEE7FEE7FEE75D1D000830
:1000F000C100000830B50B46014600202022012433
:1001000009E00D46D5409D4205D31D469540491B4B
:100110002546954040191546521E002DF1DC30BD94
:1001200070B500242546002801DA01244042002948
:1001300001DA01254942FFF7DDFFAC4200D0404221
:10014000002C00D0494270BDD2B201E00270401CC8
:10015000491EFBD270470022F6E710B513460A4647
:1001600004461946FFF7F0FF204610BD064C012556
:10017000064E05E0E36807CC2B430C3C984710344F
:10018000B442F7D3FFF7A0FF14240008342400087A
:1001900070B50125ED06002406E0A0002858A10056
:1001A000064A5050601CC4B2302CF6DB01204007D8
:1001B0000349886002F04EF8002070BD0000002066
:1001C00000ED00E000BFFEE710B50B480B490860EA
:1001D0000B48486001218903084881600021C16003
:1001E0000161416100F03AFA002804D005A001F055
:1001F00019FEFFF7E7FF10BD005400402801002062
:10020000A08601004932433120696E69742066611D
:10021000696C65640D0A000000B587B0142102A85E
:10022000FFF799FF00BF1448406B012108431249B2
:1002300048630846406BC007C00F019000BF00BF75
:1002400020200290002003900120049000200590BF
:1002500002A90520000700F011F900F015F8074980
:100260000870084600780649087000F0F1F9054961
:10027000086007B000BD000000100240C50000206B
:10028000C6000020C800002010B52021052000076E
:1002900000F0CEF9002801D1012010BD0020FCE7BC
:1002A00070B5FFF7F1FF044600F0D2F905460D489E
:1002B0000078844203D00B4804700B4805600A485C
:1002C0000068281A1E280AD308480078844206D0FD
:1002D000064804700078002801D0012070BD00207D
:1002E000FCE70000C5000020C8000020C600002078
:1002F00010B5044607A001F095FDE06801F0ACFDE3
:1003000005A001F08FFD206901F0A6FD04A001F019
:1003100089FD10BD543D000020432C2052483D0073
:1003200020250D0A0000000010B50A4801F09AFCD3
:10033000002804D008A001F075FD002010BD0120A8
:100340000E4908700348FFF7D3FF00F039F8012089
:10035000F4E70000680100205348543435207265EA
:100360006164206661696C6564206F72204352434A
:10037000206572726F720D0A00000000C400002038
:1003800010B50D480D490860E12040024860002189
:100390000A488160C160016181610C2141610021D5
:1003A000C161002005490862084600F01AFE0028D5
:1003B00001D0FFF707FF10BD00380140E400002026
:1003C00010B507480078002800D110BD0549C8685D
:1003D00001F060FB0349086901F046FB00BFF4E748
:1003E000C40000206801002010B586B0044600BF9C
:1003F00000BF1448406B0121084312494863084676
:10040000406BC007C00F009000BF00BF00BF60007E
:100410000D49085A0190012002900020039002200B
:100420000490A100094A505801A900F027F8620081
:10043000054B995AA200054B9858012200F001F98A
:1004400006B010BD001002400C240008D0000020AF
:1004500070B5044600F0FCF806462546681C0028E6
:1004600002D0054800682D1800BF00F0F1F8801B8D
:10047000A842FAD370BD0000E000002070B503462A
:100480000022CBE0012696400C683440002C71D04D
:100490004D68022D02D04D68122D15D1D508AE0041
:1004A0001D462035A8595507EE0E0F25B5400646C6
:1004B000AE4330465607F60E0D69B5402843D508C1
:1004C000AD001E4620367051186856000325B54011
:1004D0000646AE4330460D79AD07AD0F5600B54028
:1004E000284318604D68012D08D04D68022D05D0B5
:1004F0004D68112D02D04D68122D18D19868560004
:100500000325B5400646AE4330465600CD68B5409B
:10051000284398605868012595400646AE4330460A
:1005200010264D6835402D09954028435860D868FD
:1005300056000325B5400646AE43304656008D684A
:10054000B5402843D860012636074D683540B5428E
:1005500063D1354D9608B600A8599507EE0E0F25C4
:10056000B5400646AE43304605252D07AB4202D1C5
:10057000002506E051E02D4DAB4201D1012500E000
:1005800002259607F60EB5402843274D9608B6007B
:10059000A851254D203528680546A5432846012643
:1005A00036044D683540B54202D1054625432846FC
:1005B0001D4D2035286068680546A543284601265C
:1005C00076044D683540B54202D10546254328469C
:1005D000154D20356860144D603D28680546A543DB
:1005E0002846012636054D683540B54202D10546FC
:1005F000254328460C4D603D286068680546A543A4
:100600002846012676054D683540B54202D105469B
:1006100025432846044D603D6860521C0D68D54056
:10062000002D00D02EE770BD60180240000400507D
:10063000024613690B40002B01D0012000E000208E
:100640007047002A01D0816100E08162704700009C
:100650000148006870470000D800002070B50446CB
:10066000002C01D1012070BD2920005D002805D19A
:10067000002128200155204600F01EFB24212920BE
:10068000015520680068400840002168086000F0BB
:10069000CDFB054659496068884206D858488542CE
:1006A00001D2012007E0002005E05648854201D232
:1006B000012000E00020012800D1D4E7524928465B
:1006C000FFF718FD0646206840688109890131431B
:1006D0002068416049496068884201D8701C08E080
:1006E000FF212D31714308467D21C900FFF702FD2E
:1006F000401C2168096A8909890108432168086248
:100700003E496068884214D862685100681EFFF74D
:10071000F1FC401C0005000D042801D2042041E03A
:1007200062685100681EFFF7E5FC401C0005000DE3
:1007300038E0A068002807D162685300D118681E0D
:10074000FFF7D8FC401C0AE0192362685A4311469F
:10075000681EFFF7CFFC401C0121890340180005EB
:10076000000D002801D101201CE0A068002809D15B
:1007700062685300D118681EFFF7BCFC401C0005DE
:10078000000D0CE0192362685A431146681EFFF7FA
:10079000B1FC401C0005000D012189034018012116
:1007A000C90308432168C969184A114008432168F0
:1007B000C86161692069084321680968C0229143C2
:1007C00008432168086020688068FE218843E1684A
:1007D0000843216888602068006801210843216877
:1007E00008600020E062202129200155002060627D
:1007F00000212A200155002035E70000A0860100D5
:1008000080841E0000093D0040420F000030FFFFC1
:10081000FFB581B0044617460A9EFFF719FF05464B
:100820002920005D202874D119230122BF492046C8
:10083000009500F0FBFE002802D0022005B0F0BDBC
:1008400000BF2820005D012801D10220F6E7012128
:100850002820015500BF206800680840002804D106
:10086000206800680843216808602068006801214A
:10087000C9028843216808602221292001551021DE
:100880002A2001550020E062A7610498E083E08BF4
:10089000A083A74820622B4632462046029900F0EA
:1008A0000BFE002801D00120C8E7A08B002811D141
:1008B00000BF009020684069009020688069009027
:1008C00000BF00BF20680068012149020843216879
:1008D000086050E0A08B01281CD12068006801212D
:1008E000890288432168086072B600BF002000902A
:1008F00020684069009020688069009000BF00BFB8
:10090000206800680121490208432168086062B636
:1009100031E009E1A08B02281BD120680068012189
:10092000C90208432168086072B600BF0020009029
:1009300020684069009020688069009000BF00BF77
:10094000206800680121890288432168086062B636
:1009500011E02068006801218902084321680860CD
:1009600000BF0020009020684069009020688069E6
:10097000009000BF00BFC7E0A08B032876D8A08BF3
:10098000012816D12A463146204600F0F7FE0028FD
:1009900001D0012052E720680069A1690870A069B0
:1009A000401CA061A08B401EA083E08B401EE08312
:1009B000AAE0A08B02282ED1334600225D492046B2
:1009C000009500F033FE002801D0012036E772B612
:1009D00020680068012149020843216808602068F6
:1009E0000069A1690870A069401CA061A08B401E2D
:1009F000A083E08B401EE08362B620680069A16995
:100A00000870A069401CA061A08B401EA083E08BF1
:100A1000401EE08378E03346002246492046009598
:100A200000F004FE002801D0012007E720680068DC
:100A30000121890288432168086072B62068006934
:100A4000A1690870A069401CA061A08B401EA08312
:100A5000E08B401EE0833346002236492046009555
:100A600000F0E4FD002802D00120E7E622E0206843
:100A70000068012149020843216808602068006974
:100A8000A1690870A069401CA061A08B401EA083D2
:100A9000E08B401EE08362B620680069A16908709F
:100AA000A069401CA061A08B401EA083E08B401E6B
:100AB000E08329E02A463146204600F05FFE002808
:100AC00001D00120BAE620680069A1690870A06918
:100AD000401CA061A08B401EA083E08B401EE083E1
:100AE0002068406904210840800800280CD0206854
:100AF0000069A1690870A069401CA061A08B401E1C
:100B0000A083E08B401EE083A08B002800D033E759
:100B100020212920015500212A20015500BF28202D
:100B2000015500BF002089E6022087E60200100080
:100B30000000FFFF04000100FFB581B00446164627
:100B40001F46FFF785FD05462920005D20287DD141
:100B50001923012256492046009500F067FD002820
:100B600002D0022005B0F0BD00BF2820005D0128A2
:100B700001D10220F6E701212820015500BF20689D
:100B800000680840002804D12068006808432168F4
:100B90000860206800680121C90288432168086054
:100BA00021212920015510212A2001550020E06231
:100BB000A661E783E08BA0833E4820622B46204657
:100BC0000A9A029900F0C0FC002801D00120C9E770
:100BD00000BF002000902068406900902068806974
:100BE000009000BF00BF4BE02A4620460A9900F063
:100BF00007FE00280BD0E06A042806D120680068B0
:100C0000012149020843216808600120AAE7A06980
:100C1000007821680861A069401CA061E08B401E3B
:100C2000E083A08B401EA083206840690421084017
:100C30008008002811D0A08B00280ED0A069007871
:100C400021680861A069401CA06100E02EE0E08BF3
:100C5000401EE083A08B401EA0832A4620460A99AE
:100C600000F0B2FC00280BD0E06A042806D120680E
:100C7000006801214902084321680860012071E7EA
:100C8000A08B0028B0D120680068012149020843E8
:100C90002168086020212920015500212A200155C2
:100CA00000BF2820015500BF00205BE7022059E764
:100CB000020010000000FFFF10B586B004461421AA
:100CC00001A8FFF748FA00BF28480068012108433F
:100CD0002649086008460068C007C00F009000BFA2
:100CE00000BF00BF21484038C06B012149050843BF
:100CF0001E494039C8630846C06B012149050840B8
:100D0000009000BF00BF00BF18484038406B012171
:100D100008431649403948630846406BC007C00F76
:100D2000009000BF00BF0C20019012200290012013
:100D30000390032004900C20059001A905200007D2
:100D4000FFF79CFB09484038C06A01214905084368
:100D500006494039C8620846C06A012149058843EE
:100D600002494039C86206B010BD00004010024080
:100D70000348006803490968401801490860704742
:100D8000D8000020E000002010B50024032000F06F
:100D900009F8002801D0012401E000F033F82046D2
:100DA00010BD0000F8B5044600251348006800286F
:100DB0001ED0114801687D20C000FFF79BF907464F
:100DC00039460E480068FFF795F9064600F042F8EC
:100DD00000280BD1042C07D200222146401E00F02F
:100DE00016F80748046004E0012502E0012500E050
:100DF00001252846F8BD0000E0000020C0000020CA
:100E0000DC00002010B50020FFF7EEFA10BD70B531
:100E100004460D4616462946204600F0B3FE70BD36
:100E20000148006870470000C000002000B5FFF7CF
:100E3000F7FF06498968072212031140090B890050
:100E4000034A515CC906C90EC84000BD00100240EB
:100E50003423000870B504462546681E09498842B7
:100E600001D901200CE0681E074948610321081FD1
:100E700000F088FE002004498861072008610020F6
:100E800070BD0000FFFFFF0000E000E07047FEB50E
:100E90000446206805682068C66820684769002005
:100EA00001902807000F0190019800280BD1202005
:100EB0002840002807D020203040002803D02046BA
:100EC00001F028F8FEBD0198002859D0F807C00F9E
:100ED000002804D1FF2021303040002850D0E807FE
:100EE000C00F002808D0FF2001303040002803D078
:100EF000206C01210843206404202840002807D0EA
:100F0000F807C00F002803D0206C0221084320649A
:100F100002202840002807D0F807C00F002803D07F
:100F2000206C04210843206408202840002807D0B2
:100F3000F807C00F002803D0206C08210843206464
:100F4000206C00281BD020202840002806D020201C
:100F50003040002802D0204600F0DCFF206C082141
:100F60000840002806D0204600F03AFF2046FFF750
:100F70008DFF04E02046FFF789FF00202064A1E7F1
:100F800010202840002811D01020304000280DD01B
:100F900000BF002000902068006800902068406832
:100FA000009000BF00BF204600F01AF880202840C3
:100FB000002807D080203040002803D0204601F0D0
:100FC000BFF87FE740202840002807D0402030406D
:100FD000002803D0204600F014FF73E700BF71E73C
:100FE000704710B50446002C01D1012010BDA06946
:100FF000002800D000E000BF3D20005D002805D1A2
:1010000000213C200155204600F030F824213D20ED
:1010100001552068C0680121490388432168C860E0
:10102000204600F0BBFF206A002802D0204600F0D6
:10103000BBFE206800690121C9028843216808615C
:101040002068406908218843216848612068C06899
:101050000121490308432168C86000202064202141
:101060003D2001553E2001550020BFE710B586B058
:101070000446142101A8FFF76EF800BF2548406B15
:1010800001210843234948630846406BC007C00F4D
:10109000009000BF00BF00BF0846406B022108431C
:1010A0001C4948630846406B02210840009000BF7D
:1010B00000BF00BF17484030006849030843154986
:1010C000403108600846006801218903084000900B
:1010D00000BF00BF802001900220029001200390F9
:1010E000022004900820059001A905200007FFF7C1
:1010F000C5F90420019002200290012003900220F3
:1011000004900020059001A90348FFF7B7F906B045
:1011100010BD000000100240000400507047FFB5F1
:1011200083B004460D461746002001903D20005D27
:10113000202871D1002D01D0002F02D1012007B04D
:10114000F0BD01210903A068884208D12069002868
:1011500005D1E807C00F002801D00120EFE700BF4C
:101160003C20005D012801D10220E8E701213C205C
:10117000015500BF0020206421213D200155FFF7CB
:1011800067FA01902786678601210903A0688842D3
:1011900005D12069002802D10026029502E02E46E2
:1011A000002002901EE00698009000228021204638
:1011B000019B00F0FEFF002801D00320BFE7002EB6
:1011C00009D102980088C005C00D216848600298C6
:1011D000801C029003E0307821684860761C608EA5
:1011E000401E6086608E0028DDD1069800900022A7
:1011F00040212046019B00F0DCFF002801D00320A5
:101200009DE720213D20015500BF00213C200155D4
:1012100000BF002093E7FFE7022090E7704710B57A
:10122000002405E00021204600F09CF8601CC4B2B8
:10123000202CF7D310BD10B5FFF7F1FF10BD08B596
:101240000020009005E000BF68460078401CC1B255
:101250000091684600780628F5D308BD00B587B030
:10126000142102A8FEF777FF00BF1748406B012149
:101270000843154948630846406BC007C00F0190FA
:1012800000BF00BF0122114605200007FFF7D9F972
:101290000122022105200007FFF7D3F901221021C6
:1012A00005200007FFF7CDF91320029001200390DD
:1012B000002004900220059002A905200007FFF7F6
:1012C000DDF807B000BD00000010024010B5FFF7C8
:1012D000C5FF022000F00CF8302000F009F8522081
:1012E00000F006F8062000F003F8FFF7A4FF10BD99
:1012F00010B504460022012105200007FFF7A1F9DF
:101300000321042000F081F80921204600F07DF837
:101310000122114605200007FFF793F910BD0000D8
:10132000F8B504460D461746102C01D2042D00D303
:10133000F8BD0120A840C6B2002F05D00848005DC6
:1013400030430749085504E00548005DB0430449AF
:1013500008550348015D204600F083F800BFE7E729
:101360007C01002070B504460D46202C00D370BDD2
:101370002807000F0E49085500220121052000070B
:10138000FFF75FF90321052000F03FF8A006800E6B
:10139000062100F03AF80649085D042100F00AF839
:1013A0000122114605200007FFF74BF900BFDEE7D9
:1013B0007C01002070B505460C46012622E0002283
:1013C000022105200007FFF73CF9FFF738FF284608
:1013D0003040002801D0012000E00020024610210A
:1013E00005200007FFF72DF9FFF729FF0122022151
:1013F00005200007FFF725F9FFF721FF7004060C11
:10140000601EC4B2002CDAD170BD70B505460C4622
:1014100024E0601E012181408EB2002202210520BD
:101420000007FFF70EF9FFF70AFF284630400028B3
:1014300001D0012000E00020024610210520000715
:10144000FFF7FFF8FFF7FBFE01220221052000074E
:10145000FFF7F7F8FFF7F3FE601EC4B2002CD8D1F7
:1014600070BD70B504460D4629462046FFF77AFF49
:1014700070BD00BFFEE70146086840690122920284
:101480001040800A002815D0D0430A68506100201F
:10149000486220222920425400222A204254C86A4D
:1014A00004221043C86200BF00222820425400BF1B
:1014B000012070470020FCE7FFB581B004460E46CE
:1014C0001F46256A206800680121890208432168B7
:1014D0000860082D04D0012D02D01948854207D19B
:1014E00020680068FF21013108432168086009E095
:1014F000606A112806D120680068FF210131084385
:1015000021680860009700220E492046039B00F0E6
:101510008DF8002802D0012005B0F0BD0120304335
:10152000C0B2216808613B460649491C2046039A1F
:1015300000F0BEF8002801D00120EDE70020EBE725
:101540000000FFFF01000100FFB581B004460E4618
:101550001F46256A082D04D0012D02D01848854267
:1015600007D120680068FF21013108432168086025
:1015700009E0606A122806D120680068FF21013165
:10158000084321680860009700220E492046039B0B
:1015900000F04CF8002802D0012005B0F0BDFE207C
:1015A0003040216808613B460649491C2046039AA1
:1015B00000F07EF8002801D00120EEE70020ECE7E3
:1015C0000000FFFF0100010070B504460D461646FD
:1015D00023E02046FFF74FFF002801D0012070BD17
:1015E000681C002819D0FFF733F8801BA84201D8E7
:1015F000002D12D1002060622021292001550021F8
:101600002A200155E06A20210843E06200BF002142
:101610002820015500BF0120E1E72068406904212E
:10162000084080080028D4D00020D8E7F8B5044648
:101630000D4617461E461DE0701C00281AD0FFF705
:1016400007F80699401AB04201D8002E12D10020A6
:10165000606220212920015500212A200155E06ADD
:1016600020210843E06200BF00212820015500BF6F
:101670000120F8BD2802000E01280AD12068406927
:10168000A9B20840A9B2884201D101200BE0002094
:1016900009E020688069A9B20840A9B2884201D156
:1016A000012000E00020B842C6D00020E1E70000A1
:1016B000F8B504460D4616461F4640E020684069CE
:1016C000012189020840800A00281BD02068006898
:1016D00049100843216808602748216848610020B4
:1016E000606220212920015500212A200155E06A4D
:1016F00004210843E06200BF00212820015500BFFB
:101700000120F8BD701C002819D0FEF7A1FFC01BF6
:10171000B04201D8002E12D1002060622021292081
:10172000015500212A200155E06A20210843E0628A
:1017300000BF00212820015500BF0120E1E7280259
:10174000000E01280AD120684069A9B20840A9B258
:10175000884201D101200BE0002009E02068806967
:10176000A9B20840A9B2884201D1012000E00020BE
:101770000028A3D00020C4E7FFFBFFFF70B504469C
:101780000D46164633E020684069102108400009E4
:10179000002812D0C84321684861002060622021DF
:1017A0002920015500212A200155E06AE06200BF8E
:1017B0002820015500BF012070BDFEF749FF801BA6
:1017C000A84201D8002D12D10020606220212920DA
:1017D000015500212A200155E06A20210843E062DA
:1017E00000BF00212820015500BF0120E4E7206848
:1017F00040694021084080090028C4D00020DBE770
:1018000070B504460D46164623E02046FFF733FE2A
:10181000002801D0012070BD681C002819D0FEF7F7
:1018200017FF801BA84201D8002D12D10020606252
:1018300020212920015500212A200155E06A20217C
:101840000843E06200BF00212820015500BF0120AD
:10185000E1E72068406980210840C0090028D4D011
:101860000020D8E7FFB581B005460E461746002494
:101870000DE0049B9C4201D1012300E000231A46A5
:10188000395D2B19D8B200F01FF9601CC4B2B44204
:10189000EFDB05B0F0BD0000FEB505460C46164670
:1018A000002D01DA002503E01848854200DD0546D9
:1018B00016483238854207DB3120207030206070B6
:1018C000A070FF2030701FE00A21681DFEF728FC81
:1018D00001900A210198FEF723FC00900A2101984B
:1018E000FEF71EFC0F460A210098FEF719FC303067
:1018F00020700A210098FEF713FC303161703846E1
:101900003030A07001203070FEBD000010270000B4
:10191000F7B584B00C4617460020019006E0202160
:10192000019821540198401CC0B2019001980428EC
:10193000F5D3FF2038700498002806DB0A210498AC
:10194000401DFEF7EDFB064606E00A2104984042E2
:10195000401DFEF7E5FB4642002E02DA704203907E
:1019600000E00396002E2FDA0398642810DA2D2069
:1019700020700A210398FEF7D3FB303060700A21F3
:101980000398FEF7CDFB3031A1700120387062E082
:101990000A210398401DFEF7C3FB0546632D00DDB9
:1019A00063252D2020700A212846FEF7B9FB0A2165
:1019B0000090FEF7B5FB303161700A212846FEF732
:1019C000AFFB3031A17046E00A210398FEF7A8FB77
:1019D00005460A210398FEF7A3FB0291642D1EDB46
:1019E0001E48854200DD054664212846FEF798FB27
:1019F0000A210090FEF794FB303121700A2128461D
:101A0000FEF78EFB0A210090FEF78AFB30316170F1
:101A10000A212846FEF784FB3031A1701BE00A2D15
:101A200011DB0A212846FEF77BFB303020700A21AB
:101A30002846FEF775FB3031617002983030A07097
:101A40000120387007E0284630306070029830304E
:101A5000A0700120387007B0F0BD0000E70300005F
:101A600010B5FFF7E8FB10BD1CB504466A4601A996
:101A70002046FFF711FF6846037801AA03210420DE
:101A8000FFF7F0FE0121024800F06AF81CBD0000DB
:101A9000E62300081CB504466A4601A92046FFF764
:101AA00037FF6846037801AA04210020FFF7DAFE19
:101AB0000121024800F054F81CBD0000E423000896
:101AC00010B5FFF7CDFF10BD70B505460C461646A4
:101AD000302C0BDB392C09DC20463038C0B20A4AE6
:101AE000115C3246284600F011F80CE02D2C05D18F
:101AF00032464021284600F009F804E03246002131
:101B0000284600F003F870BDFA230008F8B5054632
:101B10000E461746072D00D3F8BD002411E02A0118
:101B20000E4BD2186300D0180122A2403240002A86
:101B300001D0012200E00022114600F011F8601CE3
:101B4000C4B2062CEBDD2901044A891808460E3080
:101B5000394600F005F800BFDEE7000074230008F6
:101B600070B504460D462078FF2802D06078FF2823
:101B700000D170BD617820782A46FFF7D1FB00BF05
:101B8000F7E7704710B5002819DA1A4A03071B0F48
:101B9000083B9B089B00D2588307DC0EFF23A34021
:101BA0009A438B071B0E8407E40EA3401A43114B84
:101BB0000407240F083CA408A4001A5118E00E4A98
:101BC00003231B02D21883089B00D2588307DC0E24
:101BD000FF23A3409A438B071B0E8407E40EA34008
:101BE0001A43054B032424021B198408A4001A512C
:101BF00010BD00001CED00E000E100E0704770B592
:101C000002460B46FF20002114E0555C684000248A
:101C10000CE080250540002D04D04500312675409C
:101C2000E8B201E04506280E651CECB2082CF0D3A2
:101C30004D1CE9B29942E8DB70BD70B505460E4611
:101C4000144631462846FFF7DAFFA04201D10120B1
:101C500070BD0020FCE700000149086070470000EB
:101C6000CC0000207CB50446FD200190324800687D
:101C7000002801D0002C01D101207CBD642001236B
:101C800001AA882100902C480068FEF755FF002823
:101C900001D00120F1E70A20FEF7DAFB64200623D9
:101CA00022468821009024480068FEF7B1FD0028F4
:101CB00001D00120E1E7A27802212046FFF7BDFF15
:101CC000002806D062790221E01CFFF7B6FF002849
:101CD00009D1002503E000206055681CC5B2062D1F
:101CE000F9D30120C9E72078000261780843E08039
:101CF000E0780002217908432081E1880F4A5143AE
:101D000008460F49FEF7F6F90E494018E0602189B0
:101D10000D4A514308460A49FEF7ECF94B21C90028
:101D2000461A002E01DA002603E00848864200DD4C
:101D3000064626610020A0E7CC0000205C4400009D
:101D4000FFFF00006CEEFFFFD43000001027000002
:101D5000704710B5FFF70CF810BD00000E48406842
:101D6000000C00040121490340180C498988C9046A
:101D7000C90C0843084948600846406808490840BB
:101D800006498031898CC905C90908430249486060
:101D9000C80304498860704700100240000FFF1F0D
:101DA000FFFF00FE00ED00E04022016A1140002923
:101DB00015D00168496992019143426A1143026852
:101DC000516101221203416A914208D101684969B7
:101DD000032252039143826A1143026851617047A2
:101DE0000168C968FF22213291430268D16001680D
:101DF0004969490849000268516120223E210A547C
:101E0000704710B504462068C068402188432168A7
:101E1000C86020213D2001552046FFF7FFF9002032
:101E200010BD000070B50546002401E0601C84B2BE
:101E3000285D0028FAD1002C09D0054B22462946FE
:101E40000448FFF76CF9002801D0FEF7BBF970BD1C
:101E500088130000E4000020F8B50546002D05DBDE
:101E60000A21681DFEF75CF9044605E00A21684274
:101E7000401DFEF755F94442002C04DA0CA0FFF790
:101E8000D1FF664200E026460A213046FEF732F9CD
:101E90000F460A213046FEF72DF9009000F00CF8AD
:101EA00004A0FFF7BFFF384600F006F8F8BD0000B9
:101EB0002D0000002E0000007FB504460025002CF8
:101EC00003D113A0FFF7AEFF7FBD0EE00A2120462D
:101ED000FEF710F9303128466A1CD5B201AA115418
:101EE0000A212046FEF706F90446002CEED10BE04D
:101EF000681EC0B2054601A9095C68460170002150
:101F00004170FFF78FFF00BF002DF1D100BFDBE76D
:101F10003000000070B504463E20005D22283BD111
:101F200001210903A06888420CD12069002809D149
:101F3000656B20684068C005C00D2880606B801C00
:101F4000606306E020684068C1B2626B501C606349
:101F50001170608F401E80B2608700281AD12068FF
:101F6000C068202188432168C8602068C068FF21BC
:101F7000013188432168C8602068406940084000FA
:101F80002168486120213E2001552046FFF7C6F810
:101F9000002070BD0020FCE70220FAE7FEB50446F1
:101FA00020680069012149038843E16808432168EA
:101FB00008612169A06808436169084302902068AC
:101FC000C0685E490840029908432168C860E0691A
:101FD0000290206840690121C902884302990843A0
:101FE0002168486120684069032109028843A1698A
:101FF0000843216848610121C902E06988424ED145
:10200000FEF714FF05466268510019226A43104624
:10201000FEF770F806466421FEF76CF80701626867
:10202000510019226A431046FEF764F806466268BA
:10203000510019226A431046FEF75CF864210090B3
:10204000FEF758F864214843301AC000323001903E
:10205000FEF750F8F821084040003F186268510030
:1020600019226A431046FEF745F806466268510099
:1020700019226A431046FEF73DF864210090FEF7EE
:1020800039F864214843301AC00032300190FEF71D
:1020900031F84007400F3818216888604CE0FEF79F
:1020A000C5FE05466268910019226A431046FEF794
:1020B00021F806466421FEF71DF8070162689100C9
:1020C00019226A431046FEF715F806466268910029
:1020D00019226A431046FEF70DF864210090FEF7BE
:1020E00009F864214843301A000132300190FEF7AC
:1020F00001F8F02108403F186268910019226A43F4
:102100001046FDF7F7FF06466268910019226A4300
:102110001046FDF7EFFF64210090FDF7EBFF64210F
:102120004843301A000132300190FDF7E3FF000709
:10213000000F381821688860FEBD0000F3E9FFFF3A
:1021400010B501463D20405C212830D101242403F4
:102150008868A0420ED1086900280BD1CA6A0868B5
:1021600000681088C005C00D0C686060C86A801CDB
:10217000C86208E0CB6A0868006818780C6860607C
:10218000C86A401CC862488E401E80B2488600283B
:102190000BD10868C0688024A0430C68E060086820
:1021A000C068402420430C68E060002010BD02207D
:1021B000FCE7FFB581B004460D4617460A9E24E0B1
:1021C000701C002821D0002E05D0FEF741FA04999A
:1021D000401AB04219D92068C068FF21A131884354
:1021E0002168C86020684069400840002168486153
:1021F00020213D2001553E20015500BF00213C20FB
:10220000015500BF032005B0F0BD206800682840DC
:10221000A84201D1012000E00020B842D0D0002027
:10222000F1E7000010B50248FEF731FE10BD0000D6
:10223000E400002002E008C8121F08C1002AFAD1F9
:1022400070477047002001E001C1121F002AFBD136
:1022500070470000FEF798FDFEF792F817A0FFF711
:10226000E1FDFDF7B1FF1A48FFF7F6FCFDF7D4FFDB
:10227000FFF72CF8FFF724FCFFF7F2FBFEF754F80A
:10228000FEF7E6F9064618E0FEF70AF80546FEF7FF
:10229000DFF90446002D03D1A01B0E49884209D363
:1022A000002D02D00CA0FFF7BDFDFEF73DF8FEF7B4
:1022B000CFF906460A20FEF7CBF8E5E70D0A537979
:1022C0007374656D2073746172740D0A00000000F0
:1022D00028010020307500004B455920707265734D
:1022E0007365642C2072656672657368206E6F7703
:1022F0000D0A0000000000000000000000000000C7
:1023000000000000000000000000000000000000CD
:1023100000000000010000000200000003000000B7
:102320000400000006000000070000000800000094
:102330000900000000000000000000000000000094
:102340000000000001000000020000000300000087
:102350000400000000093D0000127A000024F4008F
:102360004086510100366E0100093D0000093D0024
:1023700000093D000103010201010000000100030A
:102380000002010003030302030102000201020331
:102390000202030005030502050104000401040311
:1023A00004020500070307020701060006010603F1
:1023B0000602FFFF090309020901080008010803DA
:1023C000080209000B030B020B010A000A010A03B1
:1023D0000A020B000D030D020D010C000C010C0391
:1023E0000C02FFFF07000D0009000F030F020F0191
:1023F0000F000E000E030E020E013F065B4F666DCE
:102400007D077F6F383838383838380020000400AE
:10241000060000003424000800000020E400000052
:102420003422000818250008E4000020BC04000045
:10243000442200080000000000000000000000002E
:10244000000000000000000000000000000000008C
:10245000000000000000000000000000000000007C
:10246000000000000000000000000000000000006C
:10247000000000000000000000000000000000005C
:10248000000000000000000000000000000000004C
:10249000000000000000000000000000000000003C
:1024A000000000000000000000000000000000002C
:1024B000000000000000000000000000000000001C
:1024C000000000000000000000000000000000000C
:1024D00000000000000000000000000000000000FC
:1024E00000000000000000000000000000000000EC
:1024F0000000000000127A00000000000000000050
:102500000000000000000050000400500000000027
:082510000400000001000000BE
:04000005080000C12E
:00000001FF
