:020000040800F2
:10000000E0050020D9000008291700083713000870
:1000100000000000000000000000000000000000E0
:10002000000000000000000000000000D1180008DF
:100030000000000000000000A5170008D318000809
:10004000000000000000000000000000EB000008BD
:10005000EB000008EB000008EB000008EB000008D4
:100060000000000000000000000000000000000090
:10007000EB000008EB000008EB00000800000000A7
:1000800000000000EB00000800000000000000007D
:1000900000000000EB00000800000000EB0000087A
:1000A00000000000EB00000800000000C11D000877
:1000B0000000000000000000000000000000000040
:1000C0000448854600F03EF800480047C10100089A
:1000D000C046C046E0050020044880470448004769
:1000E000FEE7FEE7FEE7FEE7FEE7FEE7DD180008B5
:1000F000C100000830B50B46014600202022012433
:1001000009E00D46D5409D4205D31D469540491B4B
:100110002546954040191546521E002DF1DC30BD94
:10012000D2B201E00270401C491EFBD2704700228F
:10013000F6E710B513460A4604461946FFF7F0FFE6
:10014000204610BD064C0125064E05E0E36807CCAD
:100150002B430C3C98471034B442F7D3FFF7B4FF5D
:10016000701F0008901F000870B58C180578401C9F
:100170006B075B0F01D10378401C2A1106D102786E
:10018000401C03E006780E70401C491C5B1EF9D130
:100190002B0705D40023521E0DD40B70491CFAE71F
:1001A0000378401CCB1A921C03E01D780D70491C8B
:1001B0005B1C521EF9D5A142D8D3002070BD0000AF
:1001C00070B50125ED06002406E0A0002858A10026
:1001D000064A5050601CC4B2302CF6DB01204007A8
:1001E0000349886001F004FE002070BD000000207B
:1001F00000ED00E000BFFEE710B50B480B490860BA
:100200000B48486001218903084881600021C160D2
:100210000161416100F0C6F9002804D005A001F099
:10022000C1FBFFF7E7FF10BD005400409C01002018
:10023000A08601000D0A4932433120696E6974209D
:100240006661696C65640D0A0000000070B50025E8
:1002500014A001F0A7FB082419E061000A23022280
:10026000184800F079FA00280FD1681CC5B216A012
:1002700001F098FB204601F0AFFB11A001F092FBCA
:10028000442C02D116A001F08DFB601CC4B2772C67
:10029000E3DD002D02D118A001F084FB1CA001F0C9
:1002A00081FB70BD0D0A49324331207363616E20BA
:1002B00073746172743A20307830382D3078373763
:1002C0000D0A00009C0100204932432064657669D4
:1002D000636520666F756E6420617420307800005D
:1002E000534854343520666F756E64206174203035
:1002F0007834340D0A0000004E6F204932432064E8
:10030000657669636520666F756E640D0A0000008E
:1003100049324331207363616E20646F6E650D0A4C
:100320000000000010B586B0044600BF00BF1448AE
:10033000406B01210843124948630846406BC007DF
:10034000C00F009000BF00BF00BF60000D49085AF9
:100350000190012002900020039002200490A1004F
:10036000094A505801A900F037F86200054B995A24
:10037000A200054B9858012200F008F906B010BD04
:10038000001002406A1F00084401002010B5044616
:100390006200044B995AA200034B9858002200F0C7
:1003A000F5F810BD6A1F00084401002070B504462E
:1003B00000F0F2F806462546681C002802D00548E1
:1003C00000682D1800BF00F0E7F8801BA842FAD3A0
:1003D00070BD00005401002070B503460022CBE040
:1003E000012696400C683440002C71D04D68022DD7
:1003F00002D04D68122D15D1D508AE001D4620350E
:10040000A8595507EE0E0F25B5400646AE433046B7
:100410005607F60E0D69B5402843D508AD001E46B7
:1004200020367051186856000325B5400646AE4385
:1004300030460D79AD07AD0F5600B5402843186022
:100440004D68012D08D04D68022D05D04D68112D45
:1004500002D04D68122D18D1986856000325B5407A
:100460000646AE4330465600CD68B54028439860F6
:100470005868012595400646AE43304610264D6823
:1004800035402D09954028435860D868560003250B
:10049000B5400646AE43304656008D68B540284309
:1004A000D860012636074D683540B54263D1354DD9
:1004B0009608B600A8599507EE0E0F25B5400646DA
:1004C000AE43304605252D07AB4202D1002506E09C
:1004D00051E02D4DAB4201D1012500E002259607E8
:1004E000F60EB5402843274D9608B600A851254D75
:1004F000203528680546A5432846012636044D6860
:100500003540B54202D10546254328461D4D2035CC
:10051000286068680546A5432846012676044D688C
:100520003540B54202D1054625432846154D2035B4
:100530006860144D603D28680546A543284601269D
:1005400036054D683540B54202D10546254328465B
:100550000C4D603D286068680546A5432846012685
:1005600076054D683540B54202D1054625432846FB
:10057000044D603D6860521C0D68D540002D00D0D0
:100580002EE770BD6018024000040050002A01D020
:10059000816100E081627047014800687047000097
:1005A0004C01002070B50446002C01D1012070BD23
:1005B0002920005D002805D1002128200155204672
:1005C00000F006FC2421292001552068006840081D
:1005D00040002168086000F0B5FC05465949606894
:1005E000884206D85848854201D2012007E0002001
:1005F00005E05648854201D2012000E00020012894
:1006000000D1D4E752492846FFF774FD064620681A
:100610004068810989013143206841604949606827
:10062000884201D8701C08E0FF212D317143084633
:100630007D21C900FFF75EFD401C2168096A890918
:1006400089010843216808623E496068884214D8DD
:1006500062685100681EFFF74DFD401C0005000D4B
:10066000042801D2042041E062685100681EFFF7AF
:1006700041FD401C0005000D38E0A068002807D1AE
:1006800062685300D118681EFFF734FD401C0AE071
:10069000192362685A431146681EFFF72BFD401C60
:1006A0000121890340180005000D002801D1012017
:1006B0001CE0A068002809D162685300D118681EA8
:1006C000FFF718FD401C0005000D0CE019236268BF
:1006D0005A431146681EFFF70DFD401C0005000D32
:1006E0000121890340180121C90308432168C96910
:1006F000184A114008432168C861616920690843AC
:1007000021680968C0229143084321680860206875
:100710008068FE218843E16808432168886020687A
:10072000006801210843216808600020E062202160
:10073000292001550020606200212A200155002057
:1007400035E70000A086010080841E0000093D00FE
:1007500040420F000030FFFFFFB585B004460F4652
:100760001E46FFF719FF0546012004902920005D71
:1007700020287DD11923012267492046009500F0E9
:10078000B7FE002802D0022009B0F0BD00BF28202B
:10079000005D012801D10220F6E701212820015542
:1007A00000BF206800680840002804D12068006865
:1007B000084321680860206800680121C902884355
:1007C000216808602421292001550020E062534857
:1007D000206200BF20680068FF21013108432168C2
:1007E0000860334600224E492046009500F080FE06
:1007F000002801D00120C7E7FE20384021680861A9
:10080000FFF7CAFE054620684069022108404008FB
:1008100003902068406949020840800A029015E070
:10082000FFF7BAFE401BB04201D8002E02D1A02132
:1008300029200155206840690221084040080390A2
:100840002068406949020840800A02902920005D22
:10085000A02805D00398002802D102980028DFD0F4
:10086000202129200155206840690221084000E02C
:100870004FE04008002825D020680068090208439E
:100880002168086000BF0020019020684069019045
:1008900020688069019000BF00BF192301221E4912
:1008A0002046009500F024FE002801D001206BE7CF
:1008B00020212920015500BF00212820015500BF1B
:1008C000002061E72068006801214902084321688F
:1008D0000860144821684861192301220E49204606
:1008E000009500F005FE002801D001204CE7049897
:1008F000401C049007990498884200D26AE720219E
:100900002920015500BF00212820015500BF0120EA
:100910003AE7022038E70000020010000000FFFF65
:1009200001000100FFFBFFFFFFB581B00446174641
:100930000A9EFFF731FE05462920005D202874D16C
:1009400019230122BF492046009500F0D1FD00285F
:1009500002D0022005B0F0BD00BF2820005D0128B4
:1009600001D10220F6E701212820015500BF2068AF
:1009700000680840002804D1206800680843216806
:100980000860206800680121C90288432168086066
:1009900022212920015510212A2001550020E06242
:1009A000A7610498E083E08BA083A74820622B46D0
:1009B00032462046029900F0E1FC002801D00120D7
:1009C000C8E7A08B002811D100BF009020684069C3
:1009D000009020688069009000BF00BF2068006818
:1009E0000121490208432168086050E0A08B0128DA
:1009F0001CD12068006801218902884321680860B1
:100A000072B600BF00200090206840690090206806
:100A10008069009000BF00BF206800680121490282
:100A200008432168086062B631E009E1A08B022822
:100A30001BD1206800680121C902084321680860B1
:100A400072B600BF002000902068406900902068C6
:100A50008069009000BF00BF206800680121890202
:100A600088432168086062B611E0206800680121AF
:100A7000890208432168086000BF002000902068B8
:100A80004069009020688069009000BF00BFC7E007
:100A9000A08B032876D8A08B012816D12A46314690
:100AA000204600F0CDFD002801D0012052E720684B
:100AB0000069A1690870A069401CA061A08B401E5C
:100AC000A083E08B401EE083AAE0A08B02282ED1F9
:100AD000334600225D492046009500F009FD0028BC
:100AE00001D0012036E772B6206800680121490272
:100AF00008432168086020680069A1690870A0693E
:100B0000401CA061A08B401EA083E08B401EE083B0
:100B100062B620680069A1690870A069401CA061E4
:100B2000A08B401EA083E08B401EE08378E033461C
:100B3000002246492046009500F0DAFC002801D04A
:100B4000012007E7206800680121890288432168A5
:100B5000086072B620680069A1690870A069401C2D
:100B6000A061A08B401EA083E08B401EE083334633
:100B7000002236492046009500F0BAFC002802D039
:100B80000120E7E622E020680068012149020843CD
:100B90002168086020680069A1690870A069401C8C
:100BA000A061A08B401EA083E08B401EE08362B654
:100BB00020680069A1690870A069401CA061A08B31
:100BC000401EA083E08B401EE08329E02A46314688
:100BD000204600F035FD002801D00120BAE620684B
:100BE0000069A1690870A069401CA061A08B401E2B
:100BF000A083E08B401EE083206840690421084008
:100C0000800800280CD020680069A1690870A069DC
:100C1000401CA061A08B401EA083E08B401EE0839F
:100C2000A08B002800D033E7202129200155002186
:100C30002A20015500BF2820015500BF002089E669
:100C4000022087E6020010000000FFFF0400010000
:100C5000FFB581B0044616461F46FFF79DFC0546CA
:100C60002920005D20287DD11923012256492046E4
:100C7000009500F03DFC002802D0022005B0F0BD38
:100C800000BF2820005D012801D10220F6E70121E4
:100C90002820015500BF206800680840002804D1C2
:100CA0002068006808432168086020680068012106
:100CB000C90288432168086021212920015510219B
:100CC0002A2001550020E062A661E783E08BA08323
:100CD0003E4820622B4620460A9A029900F096FB75
:100CE000002801D00120C9E700BF00200090206843
:100CF0004069009020688069009000BF00BF4BE011
:100D00002A4620460A9900F0DDFC00280BD0E06A54
:100D1000042806D12068006801214902084321689F
:100D200008600120AAE7A069007821680861A0692D
:100D3000401CA061E08B401EE083A08B401EA0837E
:100D400020684069042108408008002811D0A08B49
:100D500000280ED0A069007821680861A069401CB5
:100D6000A06100E02EE0E08B401EE083A08B401EDF
:100D7000A0832A4620460A9900F088FB00280BD061
:100D8000E06A042806D1206800680121490208436E
:100D900021680860012071E7A08B0028B0D120688D
:100DA00000680121490208432168086020212920A8
:100DB000015500212A20015500BF2820015500BF00
:100DC00000205BE7022059E7020010000000FFFF4F
:100DD00010B586B00446142101A8FFF7A8F900BF9A
:100DE0002848006801210843264908600846006831
:100DF000C007C00F009000BF00BF00BF21484038AF
:100E0000C06B0121490508431E494039C8630846A3
:100E1000C06B012149050840009000BF00BF00BF22
:100E200018484038406B012108431649403948634F
:100E30000846406BC007C00F009000BF00BF0C20E9
:100E400001901220029001200390032004900C20B6
:100E5000059001A905200007FFF7BEFA09484038B0
:100E6000C06A01214905084306494039C86208465D
:100E7000C06A01214905884302494039C86206B069
:100E800010BD000040100240034800680349096893
:100E900040180149086070474C01002054010020AF
:100EA00010B50024032000F009F8002801D0012427
:100EB00001E000F033F8204610BD0000F8B504460C
:100EC00000251348006800281ED0114801687D20C5
:100ED000C000FFF70FF9074639460E480068FFF7D4
:100EE00009F9064600F042F800280BD1042C07D27D
:100EF00000222146401E00F016F80748046004E076
:100F0000012502E0012500E001252846F8BD00008A
:100F100054010020C00000205001002010B5002026
:100F2000FFF700FA10BD70B504460D461646294677
:100F3000204600F0FBFB70BD0148006870470000D0
:100F4000C000002000B5FFF7F7FF064989680722B7
:100F500012031140090B8900034A515CC906C90EEE
:100F6000C84000BD00100240181F000870B50446BC
:100F70002546681E0949884201D901200CE0681EF7
:100F8000074948610321081F00F0D0FB00200449F5
:100F9000886107200861002070BD0000FFFFFF008E
:100FA00000E000E07047FEB5044620680568206850
:100FB000C66820684769002001902807000F01904B
:100FC000019800280BD120202840002807D020209D
:100FD0003040002803D0204600F06AFDFEBD019895
:100FE000002859D0F807C00F002804D1FF20213075
:100FF0003040002850D0E807C00F002808D0FF205C
:1010000001303040002803D0206C012108432064C7
:1010100004202840002807D0F807C00F002803D07C
:10102000206C02210843206402202840002807D0B9
:10103000F807C00F002803D0206C04210843206467
:1010400008202840002807D0F807C00F002803D048
:10105000206C082108432064206C00281BD020202D
:101060002840002806D020203040002802D020460A
:1010700000F01EFD206C08210840002806D0204604
:1010800000F06EFC2046FFF78DFF04E02046FFF7DE
:1010900089FF00202064A1E710202840002811D0FB
:1010A0001020304000280DD000BF002000902068A4
:1010B0000068009020684068009000BF00BF204694
:1010C00000F01AF880202840002807D08020304007
:1010D000002803D0204600F001FE7FE74020284092
:1010E000002807D040203040002803D0204600F0E0
:1010F00048FC73E700BF71E7704710B50446002C49
:1011000001D1012010BDA069002800D000E000BF7F
:101110003D20005D002805D100213C2001552046DE
:1011200000F030F824213D2001552068C0680121DD
:10113000490388432168C860204600F0FDFC206A0E
:10114000002802D0204600F0EFFB20680069012152
:10115000C9028843216808612068406908218843E2
:10116000216848612068C06801214903084321685B
:10117000C8600020206420213D2001553E200155FB
:101180000020BFE710B586B00446142101A8FEF781
:10119000CEFF00BF2548406B012108432349486327
:1011A0000846406BC007C00F009000BF00BF00BFE3
:1011B0000846406B022108431C4948630846406BBF
:1011C00002210840009000BF00BF00BF1748403018
:1011D0000068490308431549403108600846006823
:1011E000012189030840009000BF00BF80200190CA
:1011F0000220029001200390022004900820059014
:1012000001A905200007FFF7E7F80420019002205C
:10121000029001200390022004900020059001A973
:101220000348FFF7D9F806B010BD000000100240D7
:10123000000400507047FFB583B004460D461746C2
:10124000002001903D20005D202871D1002D01D0AB
:10125000002F02D1012007B0F0BD01210903A068D1
:10126000884208D12069002805D1E807C00F00286E
:1012700001D00120EFE700BF3C20005D012801D133
:101280000220E8E701213C20015500BF0020206436
:1012900021213D200155FFF77FF9019027866786C0
:1012A00001210903A068884205D12069002802D1E4
:1012B0000026029502E02E46002002901EE00698CD
:1012C0000090002280212046019B00F040FD002874
:1012D00001D00320BFE7002E09D102980088C00585
:1012E000C00D216848600298801C029003E03078AD
:1012F00021684860761C608E401E6086608E0028E3
:10130000DDD106980090002240212046019B00F08C
:101310001EFD002801D003209DE720213D2001551E
:1013200000BF00213C20015500BF002093E7FFE7EC
:10133000022090E7704700BFFEE701460868406959
:10134000012292021040800A002815D0D0430A687A
:1013500050610020486220222920425400222A2085
:101360004254C86A04221043C86200BF00222820E9
:10137000425400BF012070470020FCE7FFB581B058
:1013800004460E461F46256A20680068012189022E
:10139000084321680860082D04D0012D02D01948A7
:1013A000854207D120680068FF2101310843216888
:1013B000086009E0606A112806D120680068FF21F2
:1013C0000131084321680860009700220E49204639
:1013D000039B00F08DF8002802D0012005B0F0BD7D
:1013E00001203043C0B2216808613B460649491CD0
:1013F0002046039A00F0BEF8002801D00120EDE756
:101400000020EBE70000FFFF01000100FFB581B005
:1014100004460E461F46256A082D04D0012D02D031
:101420001848854207D120680068FF210131084330
:101430002168086009E0606A122806D12068006807
:10144000FF210131084321680860009700220E49FE
:101450002046039B00F04CF8002802D0012005B084
:10146000F0BDFE203040216808613B460649491C1A
:101470002046039A00F07EF8002801D00120EEE714
:101480000020ECE70000FFFF0100010070B50446FA
:101490000D46164623E02046FFF74FFF002801D0F7
:1014A000012070BD681C002819D0FFF775F8801B5B
:1014B000A84201D8002D12D10020606220212920ED
:1014C000015500212A200155E06A20210843E062ED
:1014D00000BF00212820015500BF0120E1E720685E
:1014E00040690421084080080028D4D00020D8E7B3
:1014F000F8B504460D4617461E461DE0701C002830
:101500001AD0FFF749F80699401AB04201D8002EC8
:1015100012D10020606220212920015500212A20BB
:101520000155E06A20210843E06200BF0021282025
:10153000015500BF0120F8BD2802000E01280AD184
:1015400020684069A9B20840A9B2884201D10120AF
:101550000BE0002009E020688069A9B20840A9B228
:10156000884201D1012000E00020B842C6D000200E
:10157000E1E70000F8B504460D4616461F4640E078
:1015800020684069012189020840800A00281BD098
:1015900020680068491008432168086027482168CE
:1015A00048610020606220212920015500212A2065
:1015B0000155E06A04210843E06200BF00212820B1
:1015C000015500BF0120F8BD701C002819D0FEF79E
:1015D000E3FFC01BB04201D8002E12D10020606290
:1015E00020212920015500212A200155E06A2021CF
:1015F0000843E06200BF00212820015500BF012000
:10160000E1E72802000E01280AD120684069A9B24A
:101610000840A9B2884201D101200BE0002009E076
:1016200020688069A9B20840A9B2884201D101208E
:1016300000E000200028A3D00020C4E7FFFBFFFF4C
:1016400070B504460D46164633E020684069102107
:1016500008400009002812D0C843216848610020D2
:10166000606220212920015500212A200155E06ACD
:10167000E06200BF2820015500BF012070BDFEF7C9
:101680008BFF801BA84201D8002D12D10020606280
:1016900020212920015500212A200155E06A20211E
:1016A0000843E06200BF00212820015500BF01204F
:1016B000E4E7206840694021084080090028C4D040
:1016C0000020DBE770B504460D46164623E02046B1
:1016D000FFF733FE002801D0012070BD681C0028F0
:1016E00019D0FEF759FF801BA84201D8002D12D156
:1016F0000020606220212920015500212A20015567
:10170000E06A20210843E06200BF00212820015543
:1017100000BF0120E1E72068406980210840C0093E
:101720000028D4D00020D8E77047000010B500286A
:1017300019DA1A4A03071B0F083B9B089B00D25873
:101740008307DC0EFF23A3409A438B071B0E8407FD
:10175000E40EA3401A43114B0407240F083CA408CD
:10176000A4001A5118E00E4A03231B02D218830862
:101770009B00D2588307DC0EFF23A3409A438B07BC
:101780001B0E8407E40EA3401A43054B03242402D6
:101790001B198408A4001A5110BD00001CED00E0C4
:1017A00000E100E070470000F3B585B00546FD207C
:1017B00004900020029003906420012304AA882151
:1017C00000903748FFF744FA002802D0012007B004
:1017D000F0BD0A20FEF7EAFD6420062302AA882154
:1017E00000902F48FFF7A0F8002801D00120EEE775
:1017F0002CA000F0D7F82EA000F0D4F86946087AA3
:1018000000F0EAF82BA000F0CDF86946487A00F025
:10181000E3F828A000F0C6F86946887A00F0DCF802
:1018200024A000F0BFF86946C87A00F0D5F821A0DE
:1018300000F0B8F86946087B00F0CEF81DA000F073
:10184000B1F86946487B00F0C7F81BA000F0AAF881
:101850006946087A0602497A0E436946C87A070241
:10186000097B0F431549714308461549FEF742FCB1
:101870001449401828601449794308461049FEF776
:1018800039FC4B21C900441A002C01DA002403E082
:101890000E48844200DD044606980460002096E766
:1018A0009C0100205348543435207261773A20005F
:1018B00030780000203078000D0A00005C44000001
:1018C000FFFF00006CEEFFFFD43000001027000087
:1018D000704710B5FFF7D8FA10BD00000E484068F9
:1018E000000C00040121490340180C498988C904EF
:1018F000C90C084308494860084640680849084040
:1019000006498031898CC905C909084302494860E4
:10191000C80304498860704700100240000FFF1F91
:10192000FFFF00FE00ED00E04022016A11400029A7
:1019300015D00168496992019143426A11430268D6
:10194000516101221203416A914208D1016849693B
:10195000032252039143826A114302685161704726
:101960000168C968FF22213291430268D160016891
:101970004969490849000268516120223E210A5400
:10198000704710B504462068C0684021884321682C
:10199000C86020213D2001552046FFF7CBFC0020E8
:1019A00010BD000070B50546002401E0601C84B243
:1019B000285D0028FAD1002C09DD054B2246294676
:1019C0000448FFF738FC002801D0FEF713FC70BD77
:1019D000881300005801002038B504462006000F87
:1019E0000749095C684601702007000F0449095C3B
:1019F0006846417000218170FFF7D4FF38BD0000B8
:101A0000581F0008F8B50446002C04DA0EA0FFF7B2
:101A1000C9FF654200E0254664212846FEF76AFBBF
:101A20000E4664212846FEF765FB074600F012F8D3
:101A300006A0FFF7B7FF0A2E02D205A0FFF7B2FFFC
:101A4000304600F007F8F8BD2D0000002E00000021
:101A5000300000007FB504460025002C03D113A000
:101A6000FFF7A0FF7FBD0EE00A212046FEF742FBF4
:101A7000303128466A1CD5B201AA11540A212046E9
:101A8000FEF738FB0446002CEED10BE0681EC0B216
:101A9000054601A9095C6846017000214170FFF705
:101AA00081FF00BF002DF1DC00BFDBE7300000004C
:101AB00070B504463E20005D22283BD10121090378
:101AC000A06888420CD12069002809D1656B206884
:101AD0004068C005C00D2880606B801C606306E014
:101AE00020684068C1B2626B501C60631170608FE7
:101AF000401E80B2608700281AD12068C06820216B
:101B000088432168C8602068C068FF21013188438C
:101B10002168C86020684069400840002168486129
:101B200020213E2001552046FFF784FB002070BD98
:101B30000020FCE70220FAE7FEB5044620680069B1
:101B4000012149038843E16808432168086121694C
:101B5000A06808436169084302902068C0685E4934
:101B60000840029908432168C860E0690290206833
:101B700040690121C90288430299084321684861EC
:101B800020684069032109028843A169084321684C
:101B900048610121C902E06988424ED1FFF7D2F9BC
:101BA00005466268510019226A431046FEF7A2FA00
:101BB00006466421FEF79EFA070162685100192269
:101BC0006A431046FEF796FA0646626851001922EB
:101BD0006A431046FEF78EFA64210090FEF78AFAF7
:101BE00064214843301AC00032300190FEF782FA77
:101BF000F821084040003F186268510019226A43EA
:101C00001046FEF777FA06466268510019226A43C9
:101C10001046FEF76FFA64210090FEF76BFA64211C
:101C20004843301AC00032300190FEF763FA400793
:101C3000400F3818216888604CE0FFF783F90546AB
:101C40006268910019226A431046FEF753FA06466D
:101C50006421FEF74FFA07016268910019226A4376
:101C60001046FEF747FA06466268910019226A4359
:101C70001046FEF73FFA64210090FEF73BFA64211C
:101C80004843301A000132300190FEF733FAF02158
:101C900008403F186268910019226A431046FEF717
:101CA00029FA06466268910019226A431046FEF737
:101CB00021FA64210090FEF71DFA64214843301A8E
:101CC000000132300190FEF715FA0007000F3818B6
:101CD00021688860FEBD0000F3E9FFFF10B50146F2
:101CE0003D20405C212830D1012424038868A04293
:101CF0000ED1086900280BD1CA6A086800681088EC
:101D0000C005C00D0C686060C86A801CC86208E02D
:101D1000CB6A0868006818780C686060C86A401C64
:101D2000C862488E401E80B2488600280BD10868E1
:101D3000C0688024A0430C68E0600868C068402444
:101D400020430C68E060002010BD0220FCE7FFB5D6
:101D500081B004460D4617460A9E24E0701C0028F8
:101D600021D0002E05D0FEF717FC0499401AB0428E
:101D700019D92068C068FF21A13188432168C86053
:101D800020684069400840002168486120213D20CA
:101D900001553E20015500BF00213C20015500BFE8
:101DA000032005B0F0BD206800682840A84201D19A
:101DB000012000E00020B842D0D00020F1E7000070
:101DC00010B50248FFF7EFF810BD000058010020E1
:101DD00002E008C8121F08C1002AFAD170477047F4
:101DE000002001E001C1121F002AFBD17047000052
:101DF0001CB5FFF755F80020FEF794FA264827494E
:101E00000860E12040024860002124488160C160F0
:101E1000016181610C2141610021C16100201F49E4
:101E200008620846FFF769F9002801D0FEF7E2F9D9
:101E3000FEF7E2F9FEF70AFA194B5D221949174835
:101E4000FFF7F9F9002801D0FEF7D4F90020FEF7DA
:101E50009DFA20E0002001900090694601A8FFF75C
:101E6000A3FC00280FD110A0FFF79CFD0198FFF7FD
:101E7000C9FD10A0FFF796FD0098FFF7C3FD0FA066
:101E8000FFF790FD02E00FA0FFF78CFD7D20C00062
:101E9000FEF78CFA00BFDDE7003801405801002052
:101EA00088130000C4000020534854343520543DAA
:101EB0000000000020432C2052483D0020250D0A40
:101EC0000000000053485434352072656164206678
:101ED00061696C65640D0A000000000000000000EC
:101EE00000000000000000000000000000000000F2
:101EF00000000000000000000100000002000000DF
:101F000003000000040000000600000007000000BD
:101F100008000000090000000000000000000000B0
:101F200000000000000000000100000002000000AE
:101F3000030000000400000000093D0000127A00C8
:101F40000024F4004086510100366E0100093D0076
:101F500000093D0000093D00303132333435363759
:101F60003839414243444546000020000400060041
:101F7000901F0008000000205801000068010008C0
:101F8000142000085801002088040000E01D00080B
:101F900001C113127A182B0D0A20554152542048C2
:101FA000797065727465726D696E616C20636F6DB6
:101FB0006D756E69636174696F6E206261736564CB
:101FC00020091808506F6C6C696E67341B456E2CC5
:101FD000180B203132206368617261630D1D73201C
:101FE00075731C280E206B6579626F617264203AEC
:101FF0000D0A5E18114578616D706C652046696E3A
:102000006973686564169AFF013112501A0404312D
:042010003204320163
:04000005080000C12E
:00000001FF
