:020000040800F2
:10000000A0050020D900000855220008331B000875
:1000100000000000000000000000000000000000E0
:10002000000000000000000000000000252400087F
:100030000000000000000000D12200082724000872
:10004000000000000000000000000000EB000008BD
:10005000EB000008EB000008EB0000084D0600086C
:100060000000000000000000000000000000000090
:10007000EB000008EB000008EB00000800000000A7
:100080000000000045220008000000000000000001
:1000900000000000EB00000800000000EB0000087A
:1000A00000000000EB00000800000000212600080E
:1000B0000000000000000000000000000000000040
:1000C0000448854600F064F800480047B501000880
:1000D000C046C046A00500200448804704480047A9
:1000E000FEE7FEE7FEE7FEE7FEE7FEE799240008ED
:1000F000C100000830B50B46014600202022012433
:1001000009E00D46D5409D4205D31D469540491B4B
:100110002546954040191546521E002DF1DC30BD94
:1001200070B500242546002801DA01244042002948
:1001300001DA01254942FFF7DDFFAC4200D0404221
:10014000002C00D0494270BD03460B439B0703D0EF
:1001500009E008C9121F08C0042AFAD203E00B788C
:100160000370401C491C521EF9D27047D2B201E004
:100170000270401C491EFBD270470022F6E710B502
:1001800013460A4604461946FFF7F0FF204610BD05
:10019000064C0125064E05E0E36807CC2B430C3CDA
:1001A00098471034B442F7D3FFF78EFF2428000895
:1001B0004428000870B50125ED06002406E0A000E3
:1001C0002858A100064A5050601CC4B2302CF6DBFF
:1001D000012040070349886002F03AFA002070BD10
:1001E0000000002000ED00E038B504461821094861
:1001F0000068FFF77FFF604305460749FFF77AFF76
:10020000401C009000BF00BF0098411E00910028D4
:10021000F9D138BDC000002040420F0000B587B0C2
:10022000142102A8FFF7A9FF72B61C480078002825
:1002300003D11B480078002802D062B607B000BD89
:1002400001F096FA00BF1748C06B01210907084367
:100250001449C8630846C06B09040840019000BFF8
:1002600000BFC814029000200690049003908812EA
:10027000059002A800F03CFF002804D001F052FADB
:1002800062B600F011F80121880300F049FF02F086
:10029000CFF801F047FA62B600BFCFE7C5000020F3
:1002A000C60000200010024000BFFEE710B50B485A
:1002B0000B4908600B4848600121890308488160A8
:1002C0000021C1600161416100F0E4FA002803D01F
:1002D00000BF00BFFFF7E8FF10BD00000054004062
:1002E0001C010020A086010000B587B0142102A8DF
:1002F000FFF743FF00BF1A4800680121084318496F
:10030000086008460068C007C00F019000BF00BF2A
:1003100000BF13484038406B012108431049403961
:1003200048630846406BC007C00F019000BF00BF84
:10033000202002900B48039001200490002005909B
:1003400002A90520000700F0B5F9002202210720CC
:1003500000F0C4FE072000F0B5FE07B000BD0000AD
:10036000401002400000211010B50B480078002812
:1003700000D110BD0020084908701E2000F06CF963
:1003800000F00CF8002802D103490870F1E70020C2
:10039000014908700120ECE7C500002010B52021BC
:1003A0000520000700F060FA002801D1012010BDEF
:1003B0000020FCE700B58BB0182105A8FFF7DDFE93
:1003C00000200190029003900490082005900120E5
:1003D0000A9005A801F01CF8002801D0FFF764FF7F
:1003E0000120400201904002049001A800F0C2FEEA
:1003F000002801D0FFF758FF00BF1348C06B012150
:10040000C90708431049C8630846C06BC00FC0073E
:10041000009000BF00BF0D480D4908600720400252
:10042000486000210A48816000F02AFE002801D0BF
:10043000FFF73AFF00220221112000F04FFE1120A9
:1004400000F040FE0BB000BD00100240007C0040F8
:100450005C01002010B516480068006940084000A3
:100460001349096808610220114909684860104869
:1004700000688068022108430D49096888600C48BB
:1004800000680069012108430949096808610F20D3
:100490004002074909688861A020FFF7A5FE0448CB
:1004A000006800690221084301490968086110BD1C
:1004B0005C0100207047000010B50446094801F0B7
:1004C0003BFF002803D000BF00BF002010BD01206B
:1004D000054908700348FFF7EDFF00F04DF80120D3
:1004E000F4E700006C010020C400002000B587B0D4
:1004F000142102A8FFF741FE00BF1B48406B0121F9
:100500000843194948630846406BC007C00F019073
:1005100000BF00BF00BF0846406B022108431249DC
:1005200048630846406B02210840019000BF00BFAD
:100530000D4840300068490388430B49403108604A
:10054000032003900020049005908020029002A9CF
:100550000520000700F0AEF80420029002A903482D
:1005600000F0A8F807B000BD0010024000040050E1
:1005700010B5FFF7BBFF10BD10B507480078002885
:1005800000D110BD0549C86801F0E4FD03490869C0
:1005900001F0CAFD00BFF4E7C40000206C01002098
:1005A00000B587B0142102A8FFF7E7FD00BF22487D
:1005B000406B01210843204948630846406BC0074F
:1005C000C00F019000BF00BF00BF0846406B022172
:1005D0000843194948630846406B022108400190CE
:1005E00000BF00BF00BF1448406B202108431249E0
:1005F00048630846406B20210840019000BF00BFBF
:10060000032003900020049005900C48029002A95A
:100610000520000700F04EF80948029002A9094899
:1006200000F048F80648001D029002A9064800F0B4
:1006300041F807B000BD000000100240409F0000DC
:10064000FBFF0000000400500014005010B52020F3
:1006500000F020F810BD000070B5044600F014F959
:1006600006462546681C002802D0054800682D185B
:1006700000BF00F009F9801BA842FAD370BD00004A
:10068000D4000020202802D10121014A11707047B6
:10069000C500002010B504460548C0682040002869
:1006A00004D00348C4602046FFF7ECFF10BD0000F3
:1006B0000018024070B503460022CBE001269640A8
:1006C0000C683440002C71D04D68022D02D04D686A
:1006D000122D15D1D508AE001D462035A859550755
:1006E000EE0E0F25B5400646AE4330465607F60ED1
:1006F0000D69B5402843D508AD001E46203670511F
:10070000186856000325B5400646AE4330460D79BD
:10071000AD07AD0F5600B540284318604D68012D58
:1007200008D04D68022D05D04D68112D02D04D68BE
:10073000122D18D1986856000325B5400646AE43E1
:1007400030465600CD68B54028439860586801256A
:1007500095400646AE43304610264D6835402D097B
:10076000954028435860D86856000325B540064692
:10077000AE43304656008D68B5402843D860012608
:1007800036074D683540B54263D1354D9608B60001
:10079000A8599507EE0E0F25B5400646AE433046E4
:1007A00005252D07AB4202D1002506E051E02D4D75
:1007B000AB4201D1012500E002259607F60EB540B7
:1007C0002843274D9608B600A851254D20352868A6
:1007D0000546A5432846012636044D683540B542F6
:1007E00002D10546254328461D4D203528606868FE
:1007F0000546A5432846012676044D683540B54296
:1008000002D1054625432846154D20356860144D14
:10081000603D28680546A5432846012636054D68F3
:100820003540B54202D10546254328460C4D603D72
:10083000286068680546A5432846012676054D6868
:100840003540B54202D1054625432846044D603D5A
:100850006860521C0D68D540002D00D02EE770BD99
:100860006018024000040050024613690B40002B40
:1008700001D0012000E000207047002A01D08161F2
:1008800000E0816270470000014800687047000086
:10089000CC00002070B50446002C01D1012070BDB1
:1008A0002920005D002805D100212820015520467F
:1008B00000F01EFB24212920015520680068400813
:1008C00040002168086000F05BFD054659496068FA
:1008D000884206D85848854201D2012007E000200E
:1008E00005E05648854201D2012000E000200128A1
:1008F00000D1D4E752492846FFF7FCFB06462068A2
:100900004068810989013143206841604949606834
:10091000884201D8701C08E0FF212D317143084640
:100920007D21C900FFF7E6FB401C2168096A89099F
:1009300089010843216808623E496068884214D8EA
:1009400062685100681EFFF7D5FB401C0005000DD2
:10095000042801D2042041E062685100681EFFF7BC
:10096000C9FB401C0005000D38E0A068002807D135
:1009700062685300D118681EFFF7BCFB401C0AE0F8
:10098000192362685A431146681EFFF7B3FB401CE7
:100990000121890340180005000D002801D1012024
:1009A0001CE0A068002809D162685300D118681EB5
:1009B000FFF7A0FB401C0005000D0CE01923626846
:1009C0005A431146681EFFF795FB401C0005000DB9
:1009D0000121890340180121C90308432168C9691D
:1009E000184A114008432168C861616920690843B9
:1009F00021680968C0229143084321680860206883
:100A00008068FE218843E168084321688860206887
:100A1000006801210843216808600020E06220216D
:100A2000292001550020606200212A200155002064
:100A300035E70000A086010080841E0000093D000B
:100A400040420F000030FFFFFFB581B0044617465B
:100A50000A9EFFF719FF05462920005D202874D162
:100A600019230122BF492046009501F03FF90028D3
:100A700002D0022005B0F0BD00BF2820005D012893
:100A800001D10220F6E701212820015500BF20688E
:100A900000680840002804D12068006808432168E5
:100AA0000860206800680121C90288432168086045
:100AB00022212920015510212A2001550020E06221
:100AC000A7610498E083E08BA083A74820622B46AF
:100AD00032462046029901F04FF8002801D001204B
:100AE000C8E7A08B002811D100BF009020684069A2
:100AF000009020688069009000BF00BF20680068F7
:100B00000121490208432168086050E0A08B0128B8
:100B10001CD120680068012189028843216808608F
:100B200072B600BF002000902068406900902068E5
:100B30008069009000BF00BF206800680121490261
:100B400008432168086062B631E009E1A08B022801
:100B50001BD1206800680121C90208432168086090
:100B600072B600BF002000902068406900902068A5
:100B70008069009000BF00BF2068006801218902E1
:100B800088432168086062B611E02068006801218E
:100B9000890208432168086000BF00200090206897
:100BA0004069009020688069009000BF00BFC7E0E6
:100BB000A08B032876D8A08B012816D12A4631466F
:100BC000204601F03BF9002801D0012052E72068BF
:100BD0000069A1690870A069401CA061A08B401E3B
:100BE000A083E08B401EE083AAE0A08B02282ED1D8
:100BF000334600225D492046009501F077F8002831
:100C000001D0012036E772B6206800680121490250
:100C100008432168086020680069A1690870A0691C
:100C2000401CA061A08B401EA083E08B401EE0838F
:100C300062B620680069A1690870A069401CA061C3
:100C4000A08B401EA083E08B401EE08378E03346FB
:100C5000002246492046009501F048F8002801D0BE
:100C6000012007E720680068012189028843216884
:100C7000086072B620680069A1690870A069401C0C
:100C8000A061A08B401EA083E08B401EE083334612
:100C9000002236492046009501F028F8002802D0AD
:100CA0000120E7E622E020680068012149020843AC
:100CB0002168086020680069A1690870A069401C6B
:100CC000A061A08B401EA083E08B401EE08362B633
:100CD00020680069A1690870A069401CA061A08B10
:100CE000401EA083E08B401EE08329E02A46314667
:100CF000204601F0A3F8002801D00120BAE62068C0
:100D00000069A1690870A069401CA061A08B401E09
:100D1000A083E08B401EE0832068406904210840E6
:100D2000800800280CD020680069A1690870A069BB
:100D3000401CA061A08B401EA083E08B401EE0837E
:100D4000A08B002800D033E7202129200155002165
:100D50002A20015500BF2820015500BF002089E648
:100D6000022087E6020010000000FFFF04000100DF
:100D7000FFB581B0044616461F46FFF785FD0546C0
:100D80002920005D20287DD11923012256492046C3
:100D9000009500F0ABFF002802D0022005B0F0BDA6
:100DA00000BF2820005D012801D10220F6E70121C3
:100DB0002820015500BF206800680840002804D1A1
:100DC00020680068084321680860206800680121E5
:100DD000C90288432168086021212920015510217A
:100DE0002A2001550020E062A661E783E08BA08302
:100DF0003E4820622B4620460A9A029900F004FFE2
:100E0000002801D00120C9E700BF00200090206821
:100E10004069009020688069009000BF00BF4BE0EF
:100E20002A4620460A9901F04BF800280BD0E06AC8
:100E3000042806D12068006801214902084321687E
:100E400008600120AAE7A069007821680861A0690C
:100E5000401CA061E08B401EE083A08B401EA0835D
:100E600020684069042108408008002811D0A08B28
:100E700000280ED0A069007821680861A069401C94
:100E8000A06100E02EE0E08B401EE083A08B401EBE
:100E9000A0832A4620460A9900F0F6FE00280BD0CF
:100EA000E06A042806D1206800680121490208434D
:100EB00021680860012071E7A08B0028B0D120686C
:100EC0000068012149020843216808602021292087
:100ED000015500212A20015500BF2820015500BFDF
:100EE00000205BE7022059E7020010000000FFFF2E
:100EF00010B586B00446142101A8FFF73EF900BFE3
:100F0000284800680121084326490860084600680F
:100F1000C007C00F009000BF00BF00BF214840388D
:100F2000C06B0121490508431E494039C863084682
:100F3000C06B012149050840009000BF00BF00BF01
:100F400018484038406B012108431649403948632E
:100F50000846406BC007C00F009000BF00BF0C20C8
:100F600001901220029001200390032004900C2095
:100F7000059001A905200007FFF79CFB09484038B0
:100F8000C06A01214905084306494039C86208463C
:100F9000C06A01214905884302494039C86206B048
:100FA00010BD000040100240034800680349096872
:100FB0004018014908607047CC000020D400002090
:100FC00010B50024032000F009F8002801D0012406
:100FD00001E000F076F8204610BD0000F8B50446A8
:100FE00000251348006800281ED0114801687D20A4
:100FF000C000FFF77FF8074639460E480068FFF744
:1010000079F8064600F098FB00280BD1042C07D293
:1010100000222146401E00F061F80748046004E009
:10102000012502E0012500E001252846F8BD000069
:10103000D4000020C0000020D0000020034A016836
:10104000914202D10121024A11707047007C004098
:10105000C600002010B50446206800680221084040
:10106000400800280BD0206880680840400800280D
:1010700005D00220216848602046FFF7DFFF10BD41
:1010800070B50446002C01D1012070BD607B0028A2
:1010900003D12073204600F013F80220607320680B
:1010A000C56806480540A168606808430543206894
:1010B000C560012060730020E7E70000FFF1BFFF7B
:1010C0007047704700BFC206D20E01219140024A0C
:1010D000116000BF7047000000E100E070B50446F9
:1010E0000D4616462946204601F0B6F870BD0000B0
:1010F00001468A68086810434A681043CA6810436A
:101100000A691043044A1268044B1A401043024A09
:10111000106000207047000000700040FFC1F0FF29
:10112000002807D0114A126801239B031A430F4B72
:101130001A6006E00D4A126801239B039A430B4B89
:101140001A600B4A126904231A43094B1A610129D8
:1011500001D130BF02E040BF20BF20BF044A126966
:1011600004239A43024B1A6170470000007000404C
:1011700000ED00E00146022208681040022807D175
:1011800012484069D20190434A6810430F4A5061A7
:10119000202208681040202807D10C48406912011D
:1011A00090438A681043094A50610122520208683C
:1011B0001040904208D105484069032292049043B0
:1011C000CA681043014A5061002070474010024035
:1011D00070B504460D46002C01D1012070BD5F485A
:1011E0000068C007C00FA84218D25C4800684008D9
:1011F0004000284359490860FFF746FB064607E0D0
:10120000FFF742FB801B5649884201D90320E5E7DE
:1012100052480068C007C00FA842F1D102212068DF
:101220000840022815D1042120680840042807D16D
:101230004C48806807210903884340184949886061
:10124000484880680F2109028843A168084345493E
:1012500088602078C007C00F00283CD06068012853
:1012600008D140480068012149040840002816D1EF
:101270000120B3E76068002808D13A4800680121DE
:101280008902084000280AD10120A7E735484030EC
:10129000006A02210840002801D101209EE7314860
:1012A0008068C008C000616808432E498860FFF765
:1012B000EBFA064607E0FFF7E7FA801B2849884269
:1012C00001D903208AE727488068382108406168EF
:1012D000C9008842EFD121480068C007C00FA8426A
:1012E00018D91E4800684008400028431B49086080
:1012F000FFF7CAFA064607E0FFF7C6FA801B18494F
:10130000884201D9032069E714480068C007C00F6C
:10131000A842F1D1042120680840042808D11148CE
:101320008068072109038843E16808430D49886004
:1013300000F03AF80B4989680F2212021140090A9D
:101340008900094A515CC906C90EC84007490860AE
:1013500007480068FFF742FE40E700000020024017
:101360008813000000100240F8260008C00000208A
:10137000D00000200148006870470000C000002035
:1013800000B5FFF7F7FF06498968072212031140ED
:10139000090B8900034A515CC906C90EC84000BD4B
:1013A000001002403827000830B585B014221549D6
:1013B0006846FEF7C9FE14488068382108400028B6
:1013C0000BD11148406889020840450B042D00D913
:1013D0000025A80069460C5811E00B4880683821A8
:1013E0000840082801D1094C09E0074880683821E5
:1013F0000840182802D10124E40300E0002420461C
:1014000005B030BD102800080010024000366E0103
:1014100070B50446002C01D1012070BD2078C007B2
:10142000C00F002878D0BB48866838210E40082EAF
:1014300009D10068B10308400028F3D06068002893
:101440006AD10120E9E7606800282FD0A068002851
:101450002AD000BFAF480068012109048843AD4984
:10146000086008460068012189048843A94908608A
:1014700000BFFFF709FA054606E0FFF705FA401B33
:10148000C82801D90320C8E7A248006801214904FF
:1014900008400128F1D09F4800690C218843A168C9
:1014A00008439C49086101E00120B6E700BF012123
:1014B00009046068884205D1964800680843954948
:1014C000086021E005210904606888420ED1914836
:1014D00000680121890408438E49086008460068B5
:1014E0000121090408438B4908600DE08948006820
:1014F00001210904884387490860084600680121E2
:10150000890488438349086000BF6068002813D0BD
:10151000FFF7BAF9054607E020E0FFF7B5F9401BF1
:10152000C82801D9032078E77A48006801214904D6
:1015300008400028F1D011E0FFF7A6F9054606E0C3
:10154000FFF7A2F9401BC82801D9032065E77148BD
:1015500000680121490408400028F1D102212068D7
:10156000084002286AD16B48806838210840064646
:10157000002E3FD1674800680121890208400028F9
:1015800004D0E068002801D1012046E761484068A6
:10159000000C0004216908435E494860FFF774F9B4
:1015A000054606E0FFF770F9401B022801D9032029
:1015B00033E7584800680121890208400028F1D02B
:1015C000002E0FD1FFF7F0FE524989680F22120258
:1015D0001140090A8900504A515CC906C90EC84029
:1015E0004E4908604E480068FFF7F8FC00283FD0DD
:1015F000012012E7E068002821D046480068FF215A
:101600000131084343490860FFF73EF9054606E00B
:10161000FFF73AF9401B022801D90320FDE63D48B7
:1016200000680121890208400028F1D0394840684B
:10163000000C0004216908433649486018E0354829
:101640000068FF210131884332490860FFF71CF927
:10165000054606E0FFF718F9401B022801D90320D0
:10166000DBE62C4800680121890208400028F1D1FE
:10167000082120680840082849D126488068382178
:10168000084018280BD123484030006A0221084046
:1016900000283CD06069002839D10120BDE660698E
:1016A00000281AD01B484030006A0121084319491C
:1016B00040310862FFF7E8F8054606E0FFF7E4F876
:1016C000401B022801D90320A7E612484030006AD7
:1016D000022108400028F1D019E00E484030006A8D
:1016E000400840000B4940310862FFF7CDF805463D
:1016F00006E0FFF7C9F8401B022801D903208CE659
:1017000004484030006A022108400028F1D100203E
:1017100083E6000000100240F8260008C000002008
:10172000D0000020034800690221084301490861F4
:101730007047000000E000E070B504462546681ED2
:101740000949884201D901200CE0681E0749486117
:101750000321081F00F080FD002004498861072054
:101760000861002070BD0000FFFFFF0000E000E006
:10177000034800690221884301490861704700005D
:1017800000E000E07047FEB5044620680568206868
:10179000C66820684769002001902807000F019063
:1017A000019800280BD120202840002807D02020B5
:1017B0003040002803D0204600F0B5FEFEBD019861
:1017C000002859D0F807C00F002804D1FF2021308D
:1017D0003040002850D0E807C00F002808D0FF2074
:1017E00001303040002803D0206C012108432064E0
:1017F00004202840002807D0F807C00F002803D095
:10180000206C02210843206402202840002807D0D1
:10181000F807C00F002803D0206C0421084320647F
:1018200008202840002807D0F807C00F002803D060
:10183000206C082108432064206C00281BD0202045
:101840002840002806D020203040002802D0204622
:1018500000F069FE206C08210840002806D02046D0
:1018600000F040FE2046FFF78DFF04E02046FFF722
:1018700089FF00202064A1E710202840002811D013
:101880001020304000280DD000BF002000902068BC
:101890000068009020684068009000BF00BF2046AC
:1018A00000F01AF880202840002807D0802030401F
:1018B000002803D0204600F07AFE7FE74020284031
:1018C000002807D040203040002803D0204600F0F8
:1018D0001AFE73E700BF71E770477047704710B595
:1018E000002405E00021204600F09CF8601CC4B2F2
:1018F000202CF7D310BD10B5FFF7F1FF10BD08B5D0
:101900000020009005E000BF68460078401CC1B28E
:101910000091684600780628F5D308BD00B587B069
:10192000142102A8FEF729FC00BF1748406B0121D3
:101930000843154948630846406BC007C00F019033
:1019400000BF00BF0122114605200007FEF795FFEA
:101950000122022105200007FEF78FFF012210213E
:1019600005200007FEF789FF132002900120039055
:10197000002004900220059002A905200007FEF730
:1019800099FE07B000BD00000010024010B5FFF73F
:10199000C5FF022000F00CF8302000F009F85220BA
:1019A00000F006F8062000F003F8FFF7A4FF10BDD2
:1019B00010B504460022012105200007FEF75DFF57
:1019C0000321042000F081F80921204600F07DF871
:1019D0000122114605200007FEF74FFF10BD000051
:1019E000F8B504460D461746102C01D2042D00D33D
:1019F000F8BD0120A840C6B2002F05D00848005D00
:101A000030430749085504E00548005DB0430449E8
:101A100008550348015D204600F083F800BFE7E762
:101A20008001002070B504460D46202C00D370BD07
:101A30002807000F0E490855002201210520000744
:101A4000FEF71BFF0321052000F03FF8A006800EE3
:101A5000062100F03AF80649085D042100F00AF872
:101A60000122114605200007FEF707FF00BFDEE751
:101A70008001002070B505460C46012622E00022B8
:101A8000022105200007FEF7F8FEFFF738FF284681
:101A90003040002801D0012000E000200246102143
:101AA00005200007FEF7E9FEFFF729FF01220221CA
:101AB00005200007FEF7E1FEFFF721FF7004060C8A
:101AC000601EC4B2002CDAD170BD70B505460C465C
:101AD00024E0601E012181408EB2002202210520F7
:101AE0000007FEF7CAFEFFF70AFF2846304000282D
:101AF00001D0012000E0002002461021052000074F
:101B0000FEF7BBFEFFF7FBFE0122022105200007C6
:101B1000FEF7B3FEFFF7F3FE601EC4B2002CD8D16F
:101B200070BD70B504460D4629462046FFF77AFF82
:101B300070BD00BFFEE701460868406901229202BD
:101B40001040800A002815D0D0430A685061002058
:101B5000486220222920425400222A204254C86A86
:101B600004221043C86200BF00222820425400BF54
:101B7000012070470020FCE7FFB581B004460E4607
:101B80001F46256A206800680121890208432168F0
:101B90000860082D04D0012D02D01948854207D1D4
:101BA00020680068FF21013108432168086009E0CE
:101BB000606A112806D120680068FF2101310843BE
:101BC00021680860009700220E492046039B00F020
:101BD0008DF8002802D0012005B0F0BD012030436F
:101BE000C0B2216808613B460649491C2046039A59
:101BF00000F0BEF8002801D00120EDE70020EBE75F
:101C00000000FFFF01000100FFB581B004460E4651
:101C10001F46256A082D04D0012D02D018488542A0
:101C200007D120680068FF2101310843216808605E
:101C300009E0606A122806D120680068FF2101319E
:101C4000084321680860009700220E492046039B44
:101C500000F04CF8002802D0012005B0F0BDFE20B5
:101C60003040216808613B460649491C2046039ADA
:101C700000F07EF8002801D00120EEE70020ECE71C
:101C80000000FFFF0100010070B504460D46164636
:101C900023E02046FFF74FFF002801D0012070BD50
:101CA000681C002819D0FEF7EFFD801BA84201D860
:101CB000002D12D100206062202129200155002131
:101CC0002A200155E06A20210843E06200BF00217C
:101CD0002820015500BF0120E1E720684069042168
:101CE000084080080028D4D00020D8E7F8B5044682
:101CF0000D4617461E461DE0701C00281AD0FEF740
:101D0000C3FD0699401AB04201D8002E12D100201E
:101D1000606220212920015500212A200155E06A16
:101D200020210843E06200BF00212820015500BFA8
:101D30000120F8BD2802000E01280AD12068406960
:101D4000A9B20840A9B2884201D101200BE00020CD
:101D500009E020688069A9B20840A9B2884201D18F
:101D6000012000E00020B842C6D00020E1E70000DA
:101D7000F8B504460D4616461F4640E02068406907
:101D8000012189020840800A00281BD020680068D1
:101D900049100843216808602748216848610020ED
:101DA000606220212920015500212A200155E06A86
:101DB00004210843E06200BF00212820015500BF34
:101DC0000120F8BD701C002819D0FEF75DFDC01B76
:101DD000B04201D8002E12D10020606220212920BB
:101DE000015500212A200155E06A20210843E062C4
:101DF00000BF00212820015500BF0120E1E7280293
:101E0000000E01280AD120684069A9B20840A9B291
:101E1000884201D101200BE0002009E020688069A0
:101E2000A9B20840A9B2884201D1012000E00020F7
:101E30000028A3D00020C4E7FFFBFFFF70B50446D5
:101E40000D46164633E0206840691021084000091D
:101E5000002812D0C8432168486100206062202118
:101E60002920015500212A200155E06AE06200BFC7
:101E70002820015500BF012070BDFEF705FD801B25
:101E8000A84201D8002D12D1002060622021292013
:101E9000015500212A200155E06A20210843E06213
:101EA00000BF00212820015500BF0120E4E7206881
:101EB00040694021084080090028C4D00020DBE7A9
:101EC00070B504460D46164623E02046FFF733FE64
:101ED000002801D0012070BD681C002819D0FEF731
:101EE000D3FC801BA84201D8002D12D100206062D3
:101EF00020212920015500212A200155E06A2021B6
:101F00000843E06200BF00212820015500BF0120E6
:101F1000E1E72068406980210840C0090028D4D04A
:101F20000020D8E7FFB581B005460E4617460024CD
:101F30000DE0049B9C4201D1012300E000231A46DE
:101F4000395D2B19D8B200F01FF9601CC4B2B4423D
:101F5000EFDB05B0F0BD0000FEB505460C461646A9
:101F6000002D01DA002503E01848854200DD054612
:101F700016483238854207DB3120207030206070EF
:101F8000A070FF2030701FE00A21681DFEF7C8F81E
:101F900001900A210198FEF7C3F800900A210198E8
:101FA000FEF7BEF80F460A210098FEF7B9F8303068
:101FB00020700A210098FEF7B3F83031617038467E
:101FC0003030A07001203070FEBD000010270000EE
:101FD000F7B584B00C4617460020019006E020219A
:101FE000019821540198401CC0B201900198042826
:101FF000F5D3FF2038700498002806DB0A210498E6
:10200000401DFEF78DF8064606E00A21049840427E
:10201000401DFEF785F84642002E02DA704203901A
:1020200000E00396002E2FDA0398642810DA2D20A2
:1020300020700A210398FEF773F8303060700A218F
:102040000398FEF76DF83031A1700120387062E01E
:102050000A210398401DFEF763F80546632D00DD55
:1020600063252D2020700A212846FEF759F80A2101
:102070000090FEF755F8303161700A212846FEF7CE
:102080004FF83031A17046E00A210398FEF748F876
:1020900005460A210398FEF743F80291642D1EDBE2
:1020A0001E48854200DD054664212846FEF738F8C3
:1020B0000A210090FEF734F8303121700A212846B9
:1020C000FEF72EF80A210090FEF72AF830316170F1
:1020D0000A212846FEF724F83031A1701BE00A2DB2
:1020E00011DB0A212846FEF71BF8303020700A2148
:1020F0002846FEF715F83031617002983030A07034
:102100000120387007E02846303060700298303087
:10211000A0700120387007B0F0BD0000E703000098
:1021200010B5FFF7E8FB10BD1CB504466A4601A9CF
:102130002046FFF711FF6846037801AA0321042017
:10214000FFF7F0FE0121024800F06AF81CBD000014
:10215000EA2700081CB504466A4601A92046FFF795
:1021600037FF6846037801AA04210020FFF7DAFE52
:102170000121024800F054F81CBD0000E8270008C7
:1021800010B5FFF7CDFF10BD70B505460C461646DD
:10219000302C0BDB392C09DC20463038C0B20A4A1F
:1021A000115C3246284600F011F80CE02D2C05D1C8
:1021B00032464021284600F009F804E0324600216A
:1021C000284600F003F870BDFE270008F8B5054664
:1021D0000E461746072D00D3F8BD002411E02A0152
:1021E0000E4BD2186300D0180122A2403240002AC0
:1021F00001D0012200E00022114600F011F8601C1D
:10220000C4B2062CEBDD2901044A891808460E30B9
:10221000394600F005F800BFDEE700007827000827
:1022200070B504460D462078FF2802D06078FF285C
:1022300000D170BD617820782A46FFF7D1FB00BF3E
:10224000F7E7000010B50248FEF704FF10BD0000DC
:102250005C0100207047000010B5002819DA1A4A06
:1022600003071B0F083B9B089B00D2588307DC0E1B
:10227000FF23A3409A438B071B0E8407E40EA34061
:102280001A43114B0407240F083CA408A4001A5158
:1022900018E00E4A03231B02D21883089B00D25871
:1022A0008307DC0EFF23A3409A438B071B0E840792
:1022B000E40EA3401A43054B032424021B1984088F
:1022C000A4001A5110BD00001CED00E000E100E088
:1022D000704770B502460B46FF20002114E0555CA4
:1022E000684000240CE080250540002D04D0450006
:1022F00031267540E8B201E04506280E651CECB2B7
:10230000082CF0D34D1CE9B29942E8DB70BD70B5E2
:1023100005460E46144631462846FFF7DAFFA0422E
:1023200001D1012070BD0020FCE7000001490860D8
:1023300070470000C80000207CB50446FD200190D5
:1023400032480068002801D0002C01D101207CBD5A
:102350006420012301AA882100902C480068FEF720
:1023600007FD002801D00120F1E70A20FEF774F9EB
:102370006420062322468821009024480068FEF746
:1023800063FB002801D00120E1E7A278022120466A
:10239000FFF7BDFF002806D062790221E01CFFF79D
:1023A000B6FF002809D1002503E000206055681C15
:1023B000C5B2062DF9D30120C9E720780002617863
:1023C0000843E080E0780002217908432081E18819
:1023D0000F4A514308460F49FDF78CFE0E4940183D
:1023E000E06021890D4A514308460A49FDF782FE03
:1023F0004B21C900461A002E01DA002603E00848E6
:10240000864200DD064626610020A0E7C8000020C5
:102410005C440000FFFF00006CEEFFFFD4300000C2
:1024200010270000704710B5FEF7BEFD10BD00007C
:1024300000B58BB0182105A8FDF79FFE0020019084
:102440000290039004900A200590FF20013008902C
:1024500010488088C004C00C01214903084309903A
:1024600001200A9005A8FEF7D3FF002801D0FDF750
:102470001BFF072001900020029003900490002190
:1024800001A8FEF7A5FE002801D0FDF70DFF0BB057
:1024900000BD0000000FFF1F0E484068000C000444
:1024A0000121490340180C498988C904C90C084313
:1024B0000849486008464068084908400649803194
:1024C000898CC905C909084302494860C803044901
:1024D0008860704700100240000FFF1FFFFF00FEE2
:1024E00000ED00E00168C968FF22213291430268D3
:1024F000D160016849694908490002685161202298
:102500003E210A54704710B504462068C068402137
:1025100088432168C86020213D2001552046FFF7EF
:10252000DDF9002010BD70B504463E20005D222874
:102530003BD101210903A06888420CD12069002801
:1025400009D1656B20684068C005C00D2880606BAC
:10255000801C606306E020684068C1B2626B501C5A
:1025600060631170608F401E80B2608700281AD1AE
:102570002068C068202188432168C8602068C0683E
:10258000FF21013188432168C86020684069400804
:1025900040002168486120213E2001552046FFF778
:1025A0009CF9002070BD0020FCE70220FAE710B57E
:1025B00001463D20405C212830D101242403886855
:1025C000A0420ED1086900280BD1CA6A08680068C9
:1025D0001088C005C00D0C686060C86A801CC862A5
:1025E00008E0CB6A0868006818780C686060C86A00
:1025F000401CC862488E401E80B2488600280BD11D
:102600000868C0688024A0430C68E0600868C0685F
:10261000402420430C68E060002010BD0220FCE74D
:1026200010B50248FFF7AFF810BD0000D800002039
:1026300002E008C8121F08C1002AFAD1704770478B
:10264000002001E001C1121F002AFBD170470000E9
:10265000FEF7B6FCFDF7A4FFFDF78AFF00BF00BF41
:10266000FDF724FE1C48FFF761FEFDF73DFEFDF778
:10267000A1FEFFF78BF9FFF783FDFFF751FD17A0D0
:10268000FDF71AFFFDF7E6FE24E00024FDF76CFEDF
:10269000002806D000201349087000BF00BF12A414
:1026A00007E010480078002803D000200D4908708A
:1026B0000EA4002C04D02046FDF7FEFEFDF7CAFE56
:1026C0000C480078002805D106480078002801D180
:1026D000FDF7A4FDD9E700001C01002073746172AE
:1026E00074000000C60000206B6579006175746F8E
:1026F00000000000C50000200000000000000000F5
:1027000000000000000000000000000000000000C9
:1027100000000000000000000100000002000000B6
:102720000300000004000000060000000700000095
:102730000800000009000000000000000000000088
:102740000000000000000000010000000200000086
:10275000030000000400000000093D0000127A00A0
:102760000024F4004086510100366E0100093D004E
:1027700000093D0000093D000103010201010000C4
:102780000001000300020100030303020301020031
:102790000201020302020300050305020501040011
:1027A00004010403040205000703070207010600F1
:1027B000060106030602FFFF0903090209010800DA
:1027C00008010803080209000B030B020B010A00B1
:1027D0000A010A030A020B000D030D020D010C0091
:1027E0000C010C030C02FFFF07000D0009000F0392
:1027F0000F020F010F000E000E030E020E013F0626
:102800005B4F666D7D077F6F383838383838380051
:1028100000093D0000127A000024F40040865101B6
:1028200000366E014428000800000020D800000097
:10283000302600081C290008D8000020C804000029
:10284000402600080000000000000000000000001A
:102850000000000000000000000000000000000078
:102860000000000000000000000000000000000068
:102870000000000000000000000000000000000058
:102880000000000000000000000000000000000048
:102890000000000000000000000000000000000038
:1028A0000000000000000000000000000000000028
:1028B0000000000000000000000000000000000018
:1028C0000000000000000000000000000000000008
:1028D00000000000000000000000000000000000F8
:1028E00000000000000000000000000000000000E8
:1028F00000000000000000000000000000000000D8
:102900000000000000127A0000000000000000003B
:0C291000000000000400000001000000B6
:04000005080000C12E
:00000001FF
