:020000040800F2
:10000000A0050020D9000008E3090008DF09000866
:1000100000000000000000000000000000000000E0
:100020000000000000000000000000005F0A00085F
:1000300000000000000000005D0A0008610A0008DE
:10004000000000000000000000000000EB000008BD
:10005000EB000008EB000008EB000008EB000008D4
:100060000000000000000000000000000000000090
:10007000EB000008EB000008EB00000800000000A7
:1000800000000000EB00000800000000000000007D
:1000900000000000EB00000800000000EB0000087A
:1000A00000000000EB00000800000000410E000806
:1000B0000000000000000000000000000000000040
:1000C0000448854600F03EF800480047C10100089A
:1000D000C046C046A00500200448804704480047A9
:1000E000FEE7FEE7FEE7FEE7FEE7FEE7690A000837
:1000F000C100000830B50B46014600202022012433
:1001000009E00D46D5409D4205D31D469540491B4B
:100110002546954040191546521E002DF1DC30BD94
:10012000D2B201E00270401C491EFBD2704700228F
:10013000F6E710B513460A4604461946FFF7F0FFE6
:10014000204610BD064C0125064E05E0E36807CCAD
:100150002B430C3C98471034B442F7D3FFF7B4FF5D
:10016000A80F0008C80F000870B58C180578401C4F
:100170006B075B0F01D10378401C2A1106D102786E
:10018000401C03E006780E70401C491C5B1EF9D130
:100190002B0705D40023521E0DD40B70491CFAE71F
:1001A0000378401CCB1A921C03E01D780D70491C8B
:1001B0005B1C521EF9D5A142D8D3002070BD0000AF
:1001C00070B50125ED06002406E0A0002858A10026
:1001D000064A5050601CC4B2302CF6DB01204007A8
:1001E0000349886000F044FE002070BD000000203C
:1001F00000ED00E000BFFEE710B586B0044600BF8A
:1002000000BF1448406B0121084312494863084667
:10021000406BC007C00F009000BF00BF00BF600070
:100220000D49085A019001200290002003900220FD
:100230000490A100094A505801A900F021F8620079
:10024000054B995AA200054B9858012200F0F2F88C
:1002500006B010BD00100240A00F000844010020AD
:1002600010B504466200044B995AA200034B9858FB
:10027000002200F0DFF810BDA00F000844010020AC
:1002800070B503460022CBE0012696400C6834404E
:10029000002C71D04D68022D02D04D68122D15D161
:1002A000D508AE001D462035A8595507EE0E0F257E
:1002B000B5400646AE4330465607F60E0D69B540CA
:1002C0002843D508AD001E462036705118685600E8
:1002D0000325B5400646AE4330460D79AD07AD0F58
:1002E0005600B540284318604D68012D08D04D6870
:1002F000022D05D04D68112D02D04D68122D18D158
:10030000986856000325B5400646AE433046560071
:10031000CD68B54028439860586801259540064649
:10032000AE43304610264D6835402D099540284390
:100330005860D86856000325B5400646AE4330469F
:1003400056008D68B5402843D860012636074D68B1
:100350003540B54263D1354D9608B600A85995078A
:10036000EE0E0F25B5400646AE43304605252D0757
:10037000AB4202D1002506E051E02D4DAB4201D148
:10038000012500E002259607F60EB5402843274DCB
:100390009608B600A851254D203528680546A54386
:1003A0002846012636044D683540B54202D105463F
:1003B000254328461D4D2035286068680546A5431D
:1003C0002846012676044D683540B54202D10546DF
:1003D00025432846154D20356860144D603D28683A
:1003E0000546A5432846012636054D683540B542E9
:1003F00002D10546254328460C4D603D28606868BB
:100400000546A5432846012676054D683540B54288
:1004100002D1054625432846044D603D6860521CC4
:100420000D68D540002D00D02EE770BD6018024049
:1004300000040050002A01D0816100E08162704711
:1004400001480068704700004C0100200348006824
:100450000349096840180149086070474C010020B1
:100460005401002010B50024032000F009F80028F2
:1004700001D0012401E000F033F8204610BD000057
:10048000F8B5044600251348006800281ED011481E
:1004900001687D20C000FFF72DFE074639460E4853
:1004A0000068FFF727FE064600F042F800280BD14F
:1004B000042C07D200222146401E00F016F80748FF
:1004C000046004E0012502E0012500E00125284642
:1004D000F8BD000054010020C000002050010020A1
:1004E00010B50020FFF788FE10BD70B504460D461C
:1004F00016462946204600F075FA70BD014800688E
:1005000070470000C000002000B5FFF7F7FF064964
:100510008968072212031140090B8900034A515CC4
:10052000C906C90EC84000BD00100240600F000897
:1005300070B504462546681E0949884201D9012044
:100540000CE0681E074948610321081F00F04AFAC1
:1005500000200449886107200861002070BD000068
:10056000FFFFFF0000E000E07047FEB50446206892
:1005700005682068C6682068476900200190280740
:10058000000F0190019800280BD12020284000285E
:1005900007D020203040002803D0204600F0C7FAC2
:1005A000FEBD0198002859D0F807C00F002804D1DB
:1005B000FF2021303040002850D0E807C00F00282D
:1005C00008D0FF2001303040002803D0206C0121EA
:1005D0000843206404202840002807D0F807C00FF3
:1005E000002803D0206C0221084320640220284008
:1005F000002807D0F807C00F002803D0206C042182
:100600000843206408202840002807D0F807C00FBE
:10061000002803D0206C082108432064206C0028A7
:100620001BD020202840002806D020203040002861
:1006300002D0204600F07BFA206C082108400028F8
:1006400006D0204600F052FA2046FFF78DFF04E066
:100650002046FFF789FF00202064A1E710202840F2
:10066000002811D01020304000280DD000BF0020FD
:10067000009020680068009020684068009000BFEB
:1006800000BF204600F01AF880202840002807D03C
:1006900080203040002803D0204600F05FFB7FE739
:1006A00040202840002807D040203040002803D0B8
:1006B000204600F02CFA73E700BF71E7704710B5D1
:1006C0000446002C01D1012010BDA069002800D0F3
:1006D00000E000BF3D20005D002805D100213C2046
:1006E0000155204600F030F824213D2001552068B6
:1006F000C0680121490388432168C860204600F092
:100700005BFA206A002802D0204600F0D3F9206866
:1007100000690121C9028843216808612068406995
:1007200008218843216848612068C0680121490385
:1007300008432168C8600020206420213D20015525
:100740003E2001550020BFE710B586B004461421B5
:1007500001A8FFF7ECFC00BF2548406B01210843CE
:10076000234948630846406BC007C00F009000BF94
:1007700000BF00BF0846406B022108431C49486384
:100780000846406B02210840009000BF00BF00BF38
:100790001748403000684903084315494031086054
:1007A00008460068012189030840009000BF00BF8F
:1007B00080200190022002900120039002200490EA
:1007C0000820059001A905200007FFF759FD042026
:1007D000019002200290012003900220049000204A
:1007E000059001A90348FFF74BFD06B010BD0000BE
:1007F0000010024000040050FFB583B004460D46CF
:100800001746002001903E20005D202864D1002D75
:1008100001D0002F02D1012007B0F0BD0121090352
:10082000A068884208D12069002805D1E807C00FD8
:10083000002801D00120EFE700BF3C20005D012827
:1008400001D10220E8E701213C20015500BF002032
:10085000206422213E200155FFF7F2FD01902787F9
:10086000678701210903A068884205D12069002813
:1008700002D10026029502E02E46002002901EE0E2
:1008800006980090002220212046019B00F09FFA4C
:10089000002801D00320BFE7002E09D1206840685E
:1008A000C105C90D029801800298801C029003E0E6
:1008B000206840683070761C608F401E6087608FB3
:1008C0000028DDD120213E20015500BF00213C2021
:1008D000015500BF00209FE702209DE77047FFB54C
:1008E00083B004460D461746002001903D20005D70
:1008F000202871D1002D01D0002F02D1012007B096
:10090000F0BD01210903A068884208D120690028B0
:1009100005D1E807C00F002801D00120EFE700BF94
:100920003C20005D012801D10220E8E701213C20A4
:10093000015500BF0020206421213D200155FFF713
:100940007FFD01902786678601210903A068884200
:1009500005D12069002802D10026029502E02E462A
:10096000002002901EE00698009000228021204680
:10097000019B00F02CFA002801D00320BFE7002ED5
:1009800009D102980088C005C00D2168486002980E
:10099000801C029003E0307821684860761C608EED
:1009A000401E6086608E0028DDD1069800900022EF
:1009B00040212046019B00F00AFA002801D00320C4
:1009C0009DE720213D20015500BF00213C2001551D
:1009D00000BF002093E7FFE7022090E7704700BFC9
:1009E000FEE7704710B5002819DA1A4A03071B0FF3
:1009F000083B9B089B00D2588307DC0EFF23A340D3
:100A00009A438B071B0E8407E40EA3401A43114B35
:100A10000407240F083CA408A4001A5118E00E4A49
:100A200003231B02D21883089B00D2588307DC0ED5
:100A3000FF23A3409A438B071B0E8407E40EA340B9
:100A40001A43054B032424021B198408A4001A51DD
:100A500010BD00001CED00E000E100E070477047B1
:100A600010B5FFF7F3FC10BD0E484068000C000401
:100A70000121490340180C498988C904C90C08435D
:100A800008494860084640680849084006498031DE
:100A9000898CC905C909084302494860C80304494B
:100AA0008860704700100240000FFF1FFFFF00FE2C
:100AB00000ED00E04022016A1140002915D00168D4
:100AC000496992019143426A1143026851610122CE
:100AD0001203416A914208D1016849690322520315
:100AE0009143826A11430268516170470168C96885
:100AF000FF22213291430268D160016849694908A7
:100B000049000268516120223E210A54704710B505
:100B100004462068C068402188432168C8602021BD
:100B20003D2001552046FFF759FF002010BD70B54C
:100B300004463E20005D22283BD101210903A06824
:100B400088420CD12069002809D1656B2068406873
:100B5000C005C00D2880606B801C606306E02068C3
:100B60004068C1B2626B501C60631170608F401EA0
:100B700080B2608700281AD12068C068202188438D
:100B80002168C8602068C068FF210131884321685E
:100B9000C860206840694008400021684861202101
:100BA0003E2001552046FFF799FE002070BD002031
:100BB000FCE70220FAE70000FEB504462068006961
:100BC000012149038843E1680843216808612169DC
:100BD000A06808436169084302902068C0685E49C4
:100BE0000840029908432168C860E06902902068C3
:100BF00040690121C902884302990843216848617C
:100C000020684069032109028843A16908432168DB
:100C100048610121C902E06988424ED1FFF774FCA6
:100C200005466268510019226A431046FFF762FACE
:100C300006466421FFF75EFA070162685100192237
:100C40006A431046FFF756FA0646626851001922B9
:100C50006A431046FFF74EFA64210090FFF74AFA04
:100C600064214843301AC00032300190FFF742FA45
:100C7000F821084040003F186268510019226A4379
:100C80001046FFF737FA06466268510019226A4398
:100C90001046FFF72FFA64210090FFF72BFA64212A
:100CA0004843301AC00032300190FFF723FA400762
:100CB000400F3818216888604CE0FFF725FC054696
:100CC0006268910019226A431046FFF713FA06463C
:100CD0006421FFF70FFA07016268910019226A4345
:100CE0001046FFF707FA06466268910019226A4328
:100CF0001046FFF7FFF964210090FFF7FBF964212C
:100D00004843301A000132300190FFF7F3F9F02127
:100D100008403F186268910019226A431046FFF7A5
:100D2000E9F906466268910019226A431046FFF706
:100D3000E1F964210090FFF7DDF964214843301A9E
:100D4000000132300190FFF7D5F90007000F381885
:100D500021688860FEBD0000F3E9FFFF10B5014681
:100D60003D20405C212830D1012424038868A04222
:100D70000ED1086900280BD1CA6A0868006810887B
:100D8000C005C00D0C686060C86A801CC86208E0BD
:100D9000CB6A0868006818780C686060C86A401CF4
:100DA000C862488E401E80B2488600280BD1086871
:100DB000C0688024A0430C68E0600868C0684024D4
:100DC00020430C68E060002010BD0220FCE7FFB566
:100DD00081B004460D4617460A9E24E0701C002888
:100DE00021D0002E05D0FFF72BFB0499401AB0420A
:100DF00019D92068C068FF21A13188432168C860E3
:100E000020684069400840002168486120213D2059
:100E100001553E20015500BF00213C20015500BF77
:100E2000032005B0F0BD206800682840A84201D129
:100E3000012000E00020B842D0D00020F1E70000FF
:100E400010B50248FFF791FB10BD000058010020CB
:100E500002E008C8121F08C1002AFAD17047704783
:100E6000002001E001C1121F002AFBD170470000E1
:100E7000FFF7F8FA0020FFF7BFF92348234908607D
:100E8000E12040024860002120488160C16001618A
:100E900081610C2141610021C16100201B49086270
:100EA0000846FFF70CFC002801D0FFF7A3F9184B08
:100EB0005D2218491548FFF712FD002801D0FFF701
:100EC00099F9134B0C2214491048FFF795FC0028A0
:100ED00001D0FFF78FF90E4B0C220F490B48FFF79B
:100EE000FEFC002801D0FFF785F9094B15220B49BC
:100EF0000648FFF7F4FC002801D0FFF77BF900203B
:100F0000FFF7AEF900BFFEE70038014058010020AE
:100F100088130000C40000203801002022010020B6
:100F200000000000000000000000000000000000C1
:100F300000000000000000000000000000000000B1
:100F40000100000002000000030000000400000097
:100F50000600000007000000080000000900000073
:100F60000000000000000000000000000000000081
:100F70000100000002000000030000000400000067
:100F800000093D0000127A000024F400408651015F
:100F900000366E0100093D0000093D0000093D00DA
:100FA0002000040006000000C80F00080000002018
:100FB00058010000680100084C100008580100208A
:100FC00048040000600E000801C113127A182B0DAE
:100FD0000A20554152542048797065727465726DCB
:100FE000696E616C20636F6D6D756E6963617469A4
:100FF0006F6E20626173656420091808506F6C6C15
:10100000696E67341B456E2C180B203132206368E3
:10101000617261630D1D732075731C280E206B6552
:1010200079626F617264203A0D0A5E181145786129
:101030006D706C652046696E6973686564169AFF09
:0C104000013112501A0404313204320154
:04000005080000C12E
:00000001FF
