:020000040800F2
:10000000A8050020D9000008B9210008971A0008A7
:1000100000000000000000000000000000000000E0
:10002000000000000000000000000000892300081C
:100030000000000000000000352200088B230008AB
:10004000000000000000000000000000EB000008BD
:10005000EB000008EB000008EB000008C1050008F9
:100060000000000000000000000000000000000090
:10007000EB000008EB000008EB00000800000000A7
:1000800000000000A921000800000000000000009E
:1000900000000000EB00000800000000EB0000087A
:1000A00000000000EB000008000000005D280008D0
:1000B0000000000000000000000000000000000040
:1000C0000448854600F064F800480047B501000880
:1000D000C046C046A80500200448804704480047A1
:1000E000FEE7FEE7FEE7FEE7FEE7FEE795230008F2
:1000F000C100000830B50B46014600202022012433
:1001000009E00D46D5409D4205D31D469540491B4B
:100110002546954040191546521E002DF1DC30BD94
:1001200070B500242546002801DA01244042002948
:1001300001DA01254942FFF7DDFFAC4200D0404221
:10014000002C00D0494270BD03460B439B0703D0EF
:1001500009E008C9121F08C0042AFAD203E00B788C
:100160000370401C491C521EF9D27047D2B201E004
:100170000270401C491EFBD270470022F6E710B502
:1001800013460A4604461946FFF7F0FF204610BD05
:10019000064C0125064E05E0E36807CC2B430C3CDA
:1001A00098471034B442F7D3FFF78EFF802A000837
:1001B000A02A000870B50125ED06002406E0A00085
:1001C0002858A100064A5050601CC4B2302CF6DBFF
:1001D000012040070349886002F058FB002070BDF1
:1001E0000000002000ED00E038B504461821094861
:1001F0000068FFF77FFF604305460749FFF77AFF76
:10020000401C009000BF00BF0098411E00910028D4
:10021000F9D138BDC000002040420F0000BFFEE70A
:1002200010B50B480B4908600B4848600121890351
:10023000084881600021C1600161416100F0E4FA79
:10024000002804D005A002F009F9FFF7E7FF10BD70
:100250000054004024010020A086010049324331AF
:1002600020696E6974206661696C65640D0A00001E
:1002700000B587B0142102A8FFF77FFF00BF1A481E
:100280000068012108431849086008460068C00753
:10029000C00F019000BF00BF00BF13484038406B43
:1002A000012108431049403948630846406BC007A4
:1002B000C00F019000BF00BF202002900B480390A8
:1002C000012004900020059002A90520000700F0FD
:1002D000ABF900220221072000F0BEFE072000F04B
:1002E000AFFE07B000BD000040100240000021102A
:1002F00010B51348007800280AD000201149087072
:1003000000F022F8002801D10D490870002010BD2E
:100310000C480078002800D1F9E70020094908704E
:100320001E2000F053F900F00FF8002800D1EEE78E
:100330000120034908700020024908700120E6E707
:10034000C5000020C600002010B5202105200007B0
:1003500000F044FA002801D1012010BD0020FCE784
:1003600000B58BB0182105A8FFF707FF002001900A
:100370000290039004900820059001200A9005A89F
:1003800000F0F0FE002801D0FFF748FF01204002F6
:1003900001904002049001A800F068FE002801D0FE
:1003A000FFF73CFF00BF1348C06B0121C90708439A
:1003B0001049C8630846C06BC00FC007009000BF5B
:1003C00000BF0D480D490860072040024860002129
:1003D0000A48816000F00EFE002801D0FFF71EFFE2
:1003E00000220221112000F037FE112000F028FE2B
:1003F0000BB000BD00100240007C004064010020F2
:1004000010B51648006800694008400013490968A3
:100410000861022011490968486010480068806836
:10042000022108430D49096888600C48006800698A
:10043000012108430949096808610F204002074962
:1004400009688861A020FFF7CFFE044800680069B2
:100450000221084301490968086110BD64010020B8
:1004600010B5044607A001F0F9FFE06802F010F8AB
:1004700005A001F0F3FF206902F00AF804A001F0E2
:10048000EDFF10BD543D000020432C2052483D009C
:1004900020250D0A0000000010B50446094801F0AF
:1004A000FDFE002804D008A001F0D8FF002010BDF8
:1004B00001200E4908700348FFF7D2FF00F038F81A
:1004C0000120F4E77401002053485434352072654C
:1004D0006164206661696C6564206F7220435243D9
:1004E000206572726F720D0A00000000C4000020C7
:1004F00010B50D480D490860E12040024860002118
:100500000A488160C160016181610C214161002163
:10051000C161002005490862084601F074F800280E
:1005200001D0FFF77BFE10BD00380140E000002045
:1005300010B507480078002800D110BD0549C868EB
:1005400001F0BAFD0349086901F0A0FD00BFF4E71E
:10055000C40000207401002010B586B0044600BF1E
:1005600000BF1448406B0121084312494863084604
:10057000406BC007C00F009000BF00BF00BF60000D
:100580000D49085A0190012002900020039002209A
:100590000490A100094A505801A900F045F86200F2
:1005A000054B995AA200054B9858012200F01FF9FB
:1005B00006B010BD00100240642A0008CC000020E4
:1005C00010B5202000F020F810BD000070B50446E2
:1005D00000F014F906462546681C002802D005489C
:1005E00000682D1800BF00F009F9801BA842FAD35B
:1005F00070BD0000DC000020202802D10121014A4A
:1006000011707047C600002010B504460548C06848
:100610002040002804D00348C4602046FFF7ECFFC8
:1006200010BD00000018024070B503460022CBE068
:10063000012696400C683440002C71D04D68022D84
:1006400002D04D68122D15D1D508AE001D462035BB
:10065000A8595507EE0E0F25B5400646AE43304665
:100660005607F60E0D69B5402843D508AD001E4665
:1006700020367051186856000325B5400646AE4333
:1006800030460D79AD07AD0F5600B54028431860D0
:100690004D68012D08D04D68022D05D04D68112DF3
:1006A00002D04D68122D18D1986856000325B54028
:1006B0000646AE4330465600CD68B54028439860A4
:1006C0005868012595400646AE43304610264D68D1
:1006D00035402D09954028435860D86856000325B9
:1006E000B5400646AE43304656008D68B5402843B7
:1006F000D860012636074D683540B54263D1354D87
:100700009608B600A8599507EE0E0F25B540064687
:10071000AE43304605252D07AB4202D1002506E049
:1007200051E02D4DAB4201D1012500E00225960795
:10073000F60EB5402843274D9608B600A851254D22
:10074000203528680546A5432846012636044D680D
:100750003540B54202D10546254328461D4D20357A
:10076000286068680546A5432846012676044D683A
:100770003540B54202D1054625432846154D203562
:100780006860144D603D28680546A543284601264B
:1007900036054D683540B54202D105462543284609
:1007A0000C4D603D286068680546A5432846012633
:1007B00076054D683540B54202D1054625432846A9
:1007C000044D603D6860521C0D68D540002D00D07E
:1007D0002EE770BD60180240000400500246136905
:1007E0000B40002B01D0012000E000207047002AC0
:1007F00001D0816100E0816270470000014800681B
:1008000070470000D400002070B50446002C01D1D0
:10081000012070BD2920005D002805D1002128207D
:100820000155204600F01EFB242129200155206897
:100830000068400840002168086000F04BFC054655
:1008400059496068884206D85848854201D201203B
:1008500007E0002005E05648854201D2012000E073
:100860000020012800D1D4E752492846FFF742FC76
:10087000064620684068810989013143206841604B
:1008800049496068884201D8701C08E0FF212D3179
:10089000714308467D21C900FFF72CFC401C2168EC
:1008A000096A890989010843216808623E4960682C
:1008B000884214D862685100681EFFF71BFC401C78
:1008C0000005000D042801D2042041E062685100B7
:1008D000681EFFF70FFC401C0005000D38E0A06803
:1008E000002807D162685300D118681EFFF702FC88
:1008F000401C0AE0192362685A431146681EFFF73C
:10090000F9FB401C0121890340180005000D002857
:1009100001D101201CE0A068002809D162685300C1
:10092000D118681EFFF7E6FB401C0005000D0CE027
:10093000192362685A431146681EFFF7DBFB401C0F
:100940000005000D0121890340180121C903084356
:100950002168C969184A114008432168C861616962
:100960002069084321680968C0229143084321682F
:10097000086020688068FE218843E1680843216898
:100980008860206800680121084321680860002011
:10099000E0622021292001550020606200212A20E8
:1009A0000155002035E70000A086010080841E006C
:1009B00000093D0040420F000030FFFFFFB581B04D
:1009C000044617460A9EFFF719FF05462920005DD9
:1009D000202874D119230122BF492046009501F037
:1009E00037F9002802D0022005B0F0BD00BF282052
:1009F000005D012801D10220F6E7012128200155E0
:100A000000BF206800680840002804D12068006802
:100A1000084321680860206800680121C9028843F2
:100A20002168086022212920015510212A20015522
:100A30000020E062A7610498E083E08BA083A748D0
:100A400020622B4632462046029901F047F80028E2
:100A500001D00120C8E7A08B002811D100BF009071
:100A600020684069009020688069009000BF00BF46
:100A7000206800680121490208432168086050E0AD
:100A8000A08B01281CD120680068012189028843BD
:100A90002168086072B600BF00200090206840699D
:100AA000009020688069009000BF00BF2068006847
:100AB0000121490208432168086062B631E009E17A
:100AC000A08B02281BD1206800680121C9020843BD
:100AD0002168086072B600BF00200090206840695D
:100AE000009020688069009000BF00BF2068006807
:100AF0000121890288432168086062B611E02068FC
:100B000000680121890208432168086000BF0020B5
:100B1000009020684069009020688069009000BFC4
:100B200000BFC7E0A08B032876D8A08B012816D180
:100B30002A463146204601F033F9002801D0012031
:100B400052E720680069A1690870A069401CA06193
:100B5000A08B401EA083E08B401EE083AAE0A08B08
:100B600002282ED1334600225D492046009501F02F
:100B70006FF8002801D0012036E772B620680068BF
:100B80000121490208432168086020680069A169C1
:100B90000870A069401CA061A08B401EA083E08B60
:100BA000401EE08362B620680069A1690870A069F0
:100BB000401CA061A08B401EA083E08B401EE08300
:100BC00078E03346002246492046009501F040F87F
:100BD000002801D0012007E7206800680121890270
:100BE00088432168086072B620680069A1690870AE
:100BF000A069401CA061A08B401EA083E08B401E1A
:100C0000E0833346002236492046009501F020F863
:100C1000002802D00120E7E622E0206800680121D8
:100C2000490208432168086020680069A1690870CA
:100C3000A069401CA061A08B401EA083E08B401ED9
:100C4000E08362B620680069A1690870A069401C51
:100C5000A061A08B401EA083E08B401EE08329E0B2
:100C60002A463146204601F09BF8002801D0012099
:100C7000BAE620680069A1690870A069401CA061FB
:100C8000A08B401EA083E08B401EE083206840695B
:100C900004210840800800280CD020680069A16960
:100CA0000870A069401CA061A08B401EA083E08B4F
:100CB000401EE083A08B002800D033E720212920AC
:100CC000015500212A20015500BF2820015500BFF1
:100CD000002089E6022087E6020010000000FFFFE6
:100CE00004000100FFB581B0044616461F46FFF719
:100CF00085FD05462920005D20287DD1192301228C
:100D000056492046009500F0A3FF002802D002209B
:100D100005B0F0BD00BF2820005D012801D10220F0
:100D2000F6E701212820015500BF2068006808402F
:100D3000002804D120680068084321680860206802
:100D400000680121C9028843216808602121292007
:100D5000015510212A2001550020E062A661E78399
:100D6000E08BA0833E4820622B4620460A9A0299D7
:100D700000F0FCFE002801D00120C9E700BF0020E0
:100D8000009020684069009020688069009000BF52
:100D900000BF4BE02A4620460A9901F043F800289C
:100DA0000BD0E06A042806D12068006801214902BE
:100DB0000843216808600120AAE7A069007821683B
:100DC0000861A069401CA061E08B401EE083A08BFD
:100DD000401EA08320684069042108408008002844
:100DE00011D0A08B00280ED0A0690078216808617E
:100DF000A069401CA06100E02EE0E08B401EE08373
:100E0000A08B401EA0832A4620460A9900F0EEFEE1
:100E100000280BD0E06A042806D120680068012170
:100E20004902084321680860012071E7A08B00286F
:100E3000B0D1206800680121490208432168086098
:100E400020212920015500212A20015500BF2820FA
:100E5000015500BF00205BE7022059E702001000A7
:100E60000000FFFF10B586B00446142101A8FFF76B
:100E700084F900BF2848006801210843264908601A
:100E800008460068C007C00F009000BF00BF00BF49
:100E900021484038C06B0121490508431E494039AB
:100EA000C8630846C06B012149050840009000BF97
:100EB00000BF00BF18484038406B01210843164965
:100EC000403948630846406BC007C00F009000BF20
:100ED00000BF0C20019012200290012003900320FB
:100EE00004900C20059001A905200007FFF79CFB4A
:100EF00009484038C06A012149050843064940397C
:100F0000C8620846C06A0121490588430249403940
:100F1000C86206B010BD00004010024003480068DF
:100F2000034909684018014908607047D40000204F
:100F3000DC00002010B50024032000F009F8002890
:100F400001D0012401E000F076F8204610BD000039
:100F5000F8B5044600251348006800281ED0114843
:100F600001687D20C000FFF7C5F8074639460E48E6
:100F70000068FFF7BFF8064600F07EFA00280BD1A4
:100F8000042C07D200222146401E00F065F80748D5
:100F9000046004E0012502E0012500E00125284667
:100FA000F8BD0000DC000020C0000020D8000020B8
:100FB000034A0168914202D10121024A117070472F
:100FC000007C0040C700002010B50446206800687F
:100FD00002210840400800280BD0206880680840A3
:100FE0004008002805D00220216848602046FFF70D
:100FF000DFFF10BD70B50446002C01D1012070BD8B
:10100000607B002803D12073204600F013F80220F3
:1010100060732068C56806480540A1686068084399
:1010200005432068C560012060730020E7E70000E9
:10103000FFF1BFFF704710B50020FFF78DFA10BD1C
:1010400000BFC206D20E01219140024A116000BFCA
:101050007047000000E100E070B504460D461646FA
:101060002946204601F0AAF870BD00000146022280
:1010700008681040022807D112484069D201904305
:101080004A6810430F4A5061202208681040202807
:1010900007D10C484069120190438A681043094AFD
:1010A00050610122520208681040904208D1054860
:1010B0004069032292049043CA681043014A506178
:1010C000002070474010024001480068704700004F
:1010D000C000002000B5FFF7F7FF06498968072226
:1010E00012031140090B8900034A515CC906C90E5D
:1010F000C84000BD001002408C29000830B585B002
:10110000142215496846FFF71FF8144880683821F3
:10111000084000280BD11148406889020840450B5F
:10112000042D00D90025A80069460C5811E00B4891
:10113000806838210840082801D1094C09E0074897
:10114000806838210840182802D10124E40300E017
:101150000024204605B030BD6C2A00080010024073
:1011600000366E0170B50446002C01D1012070BD1F
:101170002078C007C00F002878D0BB488668382187
:101180000E40082E09D10068B10308400028F3D0B2
:10119000606800286AD10120E9E7606800282FD044
:1011A000A06800282AD000BFAF48006801210904C8
:1011B0008843AD49086008460068012189048843D6
:1011C000A949086000BFFFF719FB054606E0FFF7D5
:1011D00015FB401BC82801D90320C8E7A2480068B6
:1011E0000121490408400128F1D09F4800690C21E1
:1011F0008843A16808439C49086101E00120B6E7E3
:1012000000BF012109046068884205D19648006842
:1012100008439549086021E0052109046068884277
:101220000ED1914800680121890408438E49086065
:10123000084600680121090408438B4908600DE055
:1012400089480068012109048843874908600846E5
:1012500000680121890488438349086000BF6068F1
:10126000002813D0FFF7CAFA054607E020E0FFF791
:10127000C5FA401BC82801D9032078E77A480068DE
:101280000121490408400028F1D011E0FFF7B6FA27
:10129000054606E0FFF7B2FA401BC82801D9032033
:1012A00065E7714800680121490408400028F1D130
:1012B00002212068084002286AD16B4880683821E2
:1012C00008400646002E3FD1674800680121890288
:1012D0000840002804D0E068002801D1012046E73A
:1012E00061484068000C0004216908435E49486079
:1012F000FFF784FA054606E0FFF780FA401B022854
:1013000001D9032033E758480068012189020840C9
:101310000028F1D0002E0FD1FFF7F0FE5249896866
:101320000F2212021140090A8900504A515CC90675
:10133000C90EC8404E4908604E480068FFF708FED5
:1013400000283FD0012012E7E068002821D046485D
:101350000068FF210131084343490860FFF74EFA56
:10136000054606E0FFF74AFA401B022801D9032090
:10137000FDE63D4800680121890208400028F1D0BF
:1013800039484068000C0004216908433649486028
:1013900018E035480068FF21013188433249086070
:1013A000FFF72CFA054606E0FFF728FA401B022853
:1013B00001D90320DBE62C4800680121890208409E
:1013C0000028F1D1082120680840082849D1264882
:1013D00080683821084018280BD123484030006A23
:1013E0000221084000283CD06069002839D1012042
:1013F000BDE6606900281AD01B484030006A012110
:101400000843194940310862FFF7F8F9054606E03C
:10141000FFF7F4F9401B022801D90320A7E6124880
:101420004030006A022108400028F1D019E00E483F
:101430004030006A400840000B4940310862FFF725
:10144000DDF9054606E0FFF7D9F9401B022801D96E
:1014500003208CE604484030006A0221084000283E
:10146000F1D1002083E60000001002404C29000862
:10147000C0000020D800002070B504462546681E34
:101480000949884201D901200CE0681E07494861DA
:101490000321081F00F092FE002004498861072004
:1014A0000861002070BD0000FFFFFF0000E000E0C9
:1014B0007047FEB50446206805682068C668206845
:1014C0004769002001902807000F0190019800282B
:1014D0000BD120202840002807D0202030400028B1
:1014E00003D0204601F032F8FEBD0198002859D003
:1014F000F807C00F002804D1FF2021303040002819
:1015000050D0E807C00F002808D0FF20013030403D
:10151000002803D0206C01210843206404202840C7
:10152000002807D0F807C00F002803D0206C022144
:101530000843206402202840002807D0F807C00F85
:10154000002803D0206C0421084320640820284090
:10155000002807D0F807C00F002803D0206C08210E
:1015600008432064206C00281BD02020284000283D
:1015700006D020203040002802D0204600F0E6FFB0
:10158000206C08210840002806D0204600F044FFC7
:101590002046FFF78DFF04E02046FFF789FF00207B
:1015A0002064A1E710202840002811D010203040EE
:1015B00000280DD000BF0020009020680068009037
:1015C00020684068009000BF00BF204600F01AF875
:1015D00080202840002807D080203040002803D0F9
:1015E000204601F0C9F87FE740202840002807D0B6
:1015F00040203040002803D0204600F01EFF73E753
:1016000000BF71E7704710B50446002C01D10120DE
:1016100010BDA069002800D000E000BF3D20005DA3
:10162000002805D100213C200155204600F030F86B
:1016300024213D2001552068C068012149038843C9
:101640002168C860204600F0C5FF206A002802D04B
:10165000204600F0C5FE206800690121C9028843C8
:101660002168086120684069082188432168486131
:101670002068C0680121490308432168C860002030
:10168000206420213D2001553E2001550020BFE768
:1016900010B586B00446142101A8FEF76EFD00BF08
:1016A0002548406B01210843234948630846406BA5
:1016B000C007C00F009000BF00BF00BF0846406BCE
:1016C000022108431C4948630846406B0221084038
:1016D000009000BF00BF00BF1748403000684903BA
:1016E0000843154940310860084600680121890314
:1016F0000840009000BF00BF8020019002200290AF
:1017000001200390022004900820059001A90520E3
:101710000007FEF789FF04200190022002900120BB
:101720000390022004900020059001A90348FEF7D1
:101730007BFF06B010BD0000001002400004005006
:101740007047FFB583B004460D4617460020019050
:101750003D20005D202871D1002D01D0002F02D145
:10176000012007B0F0BD01210903A068884208D11B
:101770002069002805D1E807C00F002801D001200A
:10178000EFE700BF3C20005D012801D10220E8E71F
:1017900001213C20015500BF0020206421213D2073
:1017A0000155FFF72BF80190278667860121090371
:1017B000A068884205D12069002802D10026029540
:1017C00002E02E46002002901EE0069800900022C3
:1017D00080212046019B01F008F8002801D0032059
:1017E000BFE7002E09D102980088C005C00D21680E
:1017F00048600298801C029003E0307821684860BD
:10180000761C608E401E6086608E0028DDD10698B2
:101810000090002240212046019B00F0E6FF0028B6
:1018200001D003209DE720213D20015500BF00216C
:101830003C20015500BF002093E7FFE7022090E71E
:10184000704710B5002405E00021204600F09CF808
:10185000601CC4B2202CF7D310BD10B5FFF7F1FF08
:1018600010BD08B50020009005E000BF6846007874
:10187000401CC1B20091684600780628F5D308BD27
:1018800000B587B0142102A8FEF777FC00BF174807
:10189000406B01210843154948630846406BC00767
:1018A000C00F019000BF00BF0122114605200007B4
:1018B000FEF79DFF0122022105200007FEF797FF9A
:1018C0000122102105200007FEF791FF132002904E
:1018D00001200390002004900220059002A9052019
:1018E0000007FEF7A1FE07B000BD00000010024097
:1018F00010B5FFF7C5FF022000F00CF8302000F013
:1019000009F8522000F006F8062000F003F8FFF76F
:10191000A4FF10BD10B504460022012105200007D8
:10192000FEF765FF0321042000F081F8092120461D
:1019300000F07DF80122114605200007FEF757FF51
:1019400010BD0000F8B504460D461746102C01D214
:10195000042D00D3F8BD0120A840C6B2002F05D049
:101960000848005D30430749085504E00548005D1C
:10197000B043044908550348015D204600F083F850
:1019800000BFE7E78801002070B504460D46202C13
:1019900000D370BD2807000F0E4908550022012111
:1019A00005200007FEF723FF0321052000F03FF884
:1019B000A006800E062100F03AF80649085D0421D1
:1019C00000F00AF80122114605200007FEF70FFF7C
:1019D00000BFDEE78801002070B505460C460126F1
:1019E00022E00022022105200007FEF700FFFFF79A
:1019F00038FF28463040002801D0012000E00020B8
:101A00000246102105200007FEF7F1FEFFF729FF2F
:101A10000122022105200007FEF7E9FEFFF721FF62
:101A20007004060C601EC4B2002CDAD170BD70B513
:101A300005460C4624E0601E012181408EB2002242
:101A4000022105200007FEF7D2FEFFF70AFF284615
:101A50003040002801D0012000E000200246102183
:101A600005200007FEF7C3FEFFF7FBFE012202215F
:101A700005200007FEF7BBFEFFF7F3FE601EC4B2B1
:101A8000002CD8D170BD70B504460D4629462046BD
:101A9000FFF77AFF70BD00BFFEE7014608684069A6
:101AA000012292021040800A002815D0D0430A6813
:101AB00050610020486220222920425400222A201E
:101AC0004254C86A04221043C86200BF0022282082
:101AD000425400BF012070470020FCE7FFB581B0F1
:101AE00004460E461F46256A2068006801218902C7
:101AF000084321680860082D04D0012D02D0194840
:101B0000854207D120680068FF2101310843216820
:101B1000086009E0606A112806D120680068FF218A
:101B20000131084321680860009700220E492046D1
:101B3000039B00F08DF8002802D0012005B0F0BD15
:101B400001203043C0B2216808613B460649491C68
:101B50002046039A00F0BEF8002801D00120EDE7EE
:101B60000020EBE70000FFFF01000100FFB581B09E
:101B700004460E461F46256A082D04D0012D02D0CA
:101B80001848854207D120680068FF2101310843C9
:101B90002168086009E0606A122806D120680068A0
:101BA000FF210131084321680860009700220E4997
:101BB0002046039B00F04CF8002802D0012005B01D
:101BC000F0BDFE203040216808613B460649491CB3
:101BD0002046039A00F07EF8002801D00120EEE7AD
:101BE0000020ECE70000FFFF0100010070B5044693
:101BF0000D46164623E02046FFF74FFF002801D090
:101C0000012070BD681C002819D0FEF7F7FD801B6D
:101C1000A84201D8002D12D1002060622021292085
:101C2000015500212A200155E06A20210843E06285
:101C300000BF00212820015500BF0120E1E72068F6
:101C400040690421084080080028D4D00020D8E74B
:101C5000F8B504460D4617461E461DE0701C0028C8
:101C60001AD0FEF7CBFD0699401AB04201D8002EDB
:101C700012D10020606220212920015500212A2054
:101C80000155E06A20210843E06200BF00212820BE
:101C9000015500BF0120F8BD2802000E01280AD11D
:101CA00020684069A9B20840A9B2884201D1012048
:101CB0000BE0002009E020688069A9B20840A9B2C1
:101CC000884201D1012000E00020B842C6D00020A7
:101CD000E1E70000F8B504460D4616461F4640E011
:101CE00020684069012189020840800A00281BD031
:101CF0002068006849100843216808602748216867
:101D000048610020606220212920015500212A20FD
:101D10000155E06A04210843E06200BF0021282049
:101D2000015500BF0120F8BD701C002819D0FEF736
:101D300065FDC01BB04201D8002E12D100206062A8
:101D400020212920015500212A200155E06A202167
:101D50000843E06200BF00212820015500BF012098
:101D6000E1E72802000E01280AD120684069A9B2E3
:101D70000840A9B2884201D101200BE0002009E00F
:101D800020688069A9B20840A9B2884201D1012027
:101D900000E000200028A3D00020C4E7FFFBFFFFE5
:101DA00070B504460D46164633E0206840691021A0
:101DB00008400009002812D0C8432168486100206B
:101DC000606220212920015500212A200155E06A66
:101DD000E06200BF2820015500BF012070BDFEF762
:101DE0000DFD801BA84201D8002D12D10020606299
:101DF00020212920015500212A200155E06A2021B7
:101E00000843E06200BF00212820015500BF0120E7
:101E1000E4E7206840694021084080090028C4D0D8
:101E20000020DBE770B504460D46164623E0204649
:101E3000FFF733FE002801D0012070BD681C002888
:101E400019D0FEF7DBFC801BA84201D8002D12D16F
:101E50000020606220212920015500212A200155FF
:101E6000E06A20210843E06200BF002128200155DC
:101E700000BF0120E1E72068406980210840C009D7
:101E80000028D4D00020D8E7FFB581B005460E4623
:101E9000174600240DE0049B9C4201D1012300E081
:101EA00000231A46395D2B19D8B200F01FF9601CC7
:101EB000C4B2B442EFDB05B0F0BD0000FEB505468C
:101EC0000C461646002D01DA002503E0184885422D
:101ED00000DD054616483238854207DB3120207088
:101EE00030206070A070FF2030701FE00A21681D54
:101EF000FEF716F901900A210198FEF711F90090FA
:101F00000A210198FEF70CF90F460A210098FEF706
:101F100007F9303020700A210098FEF701F93031BE
:101F2000617038463030A07001203070FEBD000076
:101F300010270000F7B584B00C461746002001902A
:101F400006E02021019821540198401CC0B2019064
:101F500001980428F5D3FF2038700498002806DB88
:101F60000A210498401DFEF7DBF8064606E00A2128
:101F700004984042401DFEF7D3F84642002E02DA94
:101F80007042039000E00396002E2FDA0398642835
:101F900010DA2D2020700A210398FEF7C1F83030A6
:101FA00060700A210398FEF7BBF83031A170012060
:101FB000387062E00A210398401DFEF7B1F805462B
:101FC000632D00DD63252D2020700A212846FEF7B1
:101FD000A7F80A210090FEF7A3F8303161700A21BA
:101FE0002846FEF79DF83031A17046E00A2103989B
:101FF000FEF796F805460A210398FEF791F802913C
:10200000642D1EDB1E48854200DD054664212846FE
:10201000FEF786F80A210090FEF782F83031217031
:102020000A212846FEF77CF80A210090FEF778F88E
:10203000303161700A212846FEF772F83031A17004
:102040001BE00A2D11DB0A212846FEF769F8303023
:1020500020700A212846FEF763F83031617002983B
:102060003030A0700120387007E0284630306070B2
:1020700002983030A0700120387007B0F0BD000029
:10208000E703000010B5FFF7E8FB10BD1CB50446E0
:102090006A4601A92046FFF711FF6846037801AAA6
:1020A00003210420FFF7F0FE0121024800F06AF846
:1020B0001CBD00003E2A00081CB504466A4601A962
:1020C0002046FFF737FF6846037801AA0421002065
:1020D000FFF7DAFE0121024800F054F81CBD0000B1
:1020E0003C2A000810B5FFF7CDFF10BD70B50546BE
:1020F0000C461646302C0BDB392C09DC20463038D8
:10210000C0B20A4A115C3246284600F011F80CE0D1
:102110002D2C05D132464021284600F009F804E074
:1021200032460021284600F003F870BD522A00080C
:10213000F8B505460E461746072D00D3F8BD002416
:1021400011E02A010E4BD2186300D0180122A240E0
:102150003240002A01D0012200E00022114600F0A6
:1021600011F8601CC4B2062CEBDD2901044A891861
:1021700008460E30394600F005F800BFDEE70000E3
:10218000CC29000870B504460D462078FF2802D0FF
:102190006078FF2800D170BD617820782A46FFF76B
:1021A000D1FB00BFF7E7000010B50248FEF70CFFB7
:1021B00010BD0000640100207047000010B5002829
:1021C00019DA1A4A03071B0F083B9B089B00D258D9
:1021D0008307DC0EFF23A3409A438B071B0E840763
:1021E000E40EA3401A43114B0407240F083CA40833
:1021F000A4001A5118E00E4A03231B02D2188308C8
:102200009B00D2588307DC0EFF23A3409A438B0721
:102210001B0E8407E40EA3401A43054B032424023B
:102220001B198408A4001A5110BD00001CED00E029
:1022300000E100E0704770B502460B46FF20002128
:1022400014E0555C684000240CE080250540002D1A
:1022500004D0450031267540E8B201E04506280E5D
:10226000651CECB2082CF0D34D1CE9B29942E8DBB6
:1022700070BD70B505460E46144631462846FFF738
:10228000DAFFA04201D1012070BD0020FCE7000070
:102290000149086070470000C80000207CB5044672
:1022A000FD20019032480068002801D0002C01D1A7
:1022B00001207CBD6420012301AA882100902C48C4
:1022C0000068FEF70FFD002801D00120F1E70A2089
:1022D000FEF77CF9642006232246882100902448DA
:1022E0000068FEF76BFB002801D00120E1E7A2782F
:1022F00002212046FFF7BDFF002806D062790221A7
:10230000E01CFFF7B6FF002809D1002503E00020FC
:102310006055681CC5B2062DF9D30120C9E72078A5
:10232000000261780843E080E078000221790843E8
:102330002081E1880F4A514308460F49FDF7DAFE34
:102340000E494018E06021890D4A514308460A4968
:10235000FDF7D0FE4B21C900461A002E01DA0026F7
:1023600003E00848864200DD064626610020A0E71B
:10237000C80000205C440000FFFF00006CEEFFFF7F
:10238000D430000010270000704710B5FEF7C6FDDE
:1023900010BD00000E484068000C000401214903F4
:1023A00040180C498988C904C90C08430849486089
:1023B000084640680849084006498031898CC905AB
:1023C000C909084302494860C80304498860704746
:1023D00000100240000FFF1FFFFF00FE00ED00E0B5
:1023E0004022016A1140002915D001684969920113
:1023F0009143426A11430268516101221203416A0A
:10240000914208D101684969032252039143826ACB
:1024100011430268516170470168C968FF22213287
:1024200091430268D160016849694908490002681E
:10243000516120223E210A54704710B5044620689D
:10244000C068402188432168C86020213D20015593
:102450002046FFF7F5F9002010BD000070B50546D5
:10246000002401E0601C84B2285D0028FAD1002C11
:1024700009D0054B224629460448FFF762F9002897
:1024800001D0FDF7CBFE70BD88130000E0000020F6
:10249000F8B50546002D05DB0A21681DFDF740FE55
:1024A000044605E00A216842401DFDF739FE44421A
:1024B000002C04DA0CA0FFF7D1FF664200E02646AC
:1024C0000A213046FDF716FE0F460A213046FDF779
:1024D00011FE009000F00CF804A0FFF7BFFF384693
:1024E00000F006F8F8BD00002D0000002E000000EE
:1024F0007FB504460025002C03D113A0FFF7AEFFE3
:102500007FBD0EE00A212046FDF7F4FD303128465C
:102510006A1CD5B201AA11540A212046FDF7EAFD32
:102520000446002CEED10BE0681EC0B2054601A99E
:10253000095C6846017000214170FFF78FFF00BF02
:10254000002DF1D100BFDBE73000000070B504467C
:102550003E20005D22283BD101210903A06888426A
:102560000CD12069002809D1656B20684068C0053E
:10257000C00D2880606B801C606306E020684068A6
:10258000C1B2626B501C60631170608F401E80B2DC
:10259000608700281AD12068C068202188432168FC
:1025A000C8602068C068FF21013188432168C86085
:1025B00020684069400840002168486120213E2091
:1025C00001552046FFF7BCF8002070BD0020FCE755
:1025D0000220FAE7FEB5044620680069012149039C
:1025E0008843E1680843216808612169A0680843BD
:1025F0006169084302902068C0685E4908400299FA
:1026000008432168C860E0690290206840690121A0
:10261000C9028843029908432168486120684069DB
:10262000032109028843A169084321684861012107
:10263000C902E06988424ED1FEF74CFD054662684A
:10264000510019226A431046FDF754FD06466421E5
:10265000FDF750FD07016268510019226A431046D8
:10266000FDF748FD06466268510019226A4310468C
:10267000FDF740FD64210090FDF73CFD64214843D7
:10268000301AC00032300190FDF734FDF8210840C7
:1026900040003F186268510019226A431046FDF756
:1026A00029FD06466268510019226A431046FDF76B
:1026B00021FD64210090FDF71DFD64214843301A7F
:1026C000C00032300190FDF715FD4007400F38186B
:1026D000216888604CE0FEF7FDFC054662689100C9
:1026E00019226A431046FDF705FD06466421FDF7F1
:1026F00001FD07016268910019226A431046FDF747
:10270000F9FC06466268910019226A431046FDF7FB
:10271000F1FC64210090FDF7EDFC64214843301A80
:10272000000132300190FDF7E5FCF02108403F1830
:102730006268910019226A431046FDF7DBFC0646E9
:102740006268910019226A431046FDF7D3FC6421A8
:102750000090FDF7CFFC64214843301A000132306D
:102760000190FDF7C7FC0007000F3818216888604A
:10277000FEBD0000F3E9FFFF10B501463D20405CBF
:10278000212830D1012424038868A0420ED1086991
:1027900000280BD1CA6A086800681088C005C00DFF
:1027A0000C686060C86A801CC86208E0CB6A086870
:1027B000006818780C686060C86A401CC862488E5F
:1027C000401E80B2488600280BD10868C06880246B
:1027D000A0430C68E0600868C068402420430C688F
:1027E000E060002010BD0220FCE7FFB581B0044688
:1027F0000D4617460A9E24E0701C002821D0002EAA
:1028000005D0FDF7FBFF0499401AB04219D92068A2
:10281000C068FF21A13188432168C86020684069F1
:10282000400840002168486120213D2001553E209C
:10283000015500BF00213C20015500BF032005B019
:10284000F0BD206800682840A84201D1012000E0C6
:102850000020B842D0D00020F1E7000010B50248B7
:10286000FEF727FE10BD0000E000002002E008C8CF
:10287000121F08C1002AFAD170477047002001E0FA
:1028800001C1121F002AFBD170470000FEF752FB66
:10289000FDF72EFE1AA0FFF7E1FDFDF7C1FC1D4874
:1028A000FFF7F6FCFDF7E4FCFDF75AFDFFF720F813
:1028B000FFF718FCFFF7E6FB17A0FDF7EDFDFDF7AE
:1028C0009FFD1CE00024FDF713FD002807D0002029
:1028D0001349087013A0FFF7C1FD19A407E01048C1
:1028E0000078002803D000200D49087015A4002CA2
:1028F00004D02046FDF7D0FDFDF782FD30BFE1E7B3
:102900000D0A53797374656D2073746172740D0AC6
:102910000000000024010020737461727400000044
:10292000C70000204B455920707265737365642C95
:102930002072656672657368206E6F770D0A0000FD
:102940006B6579006175746F000000000000000085
:102950000000000000000000000000000000000077
:102960000000000000000000000000000100000066
:102970000200000003000000040000000600000048
:10298000070000000800000009000000000000002F
:102990000000000000000000000000000100000036
:1029A00002000000030000000400000000093D00D8
:1029B00000127A000024F4004086510100366E01B6
:1029C00000093D0000093D0000093D00010301022E
:1029D00001010000000100030002010003030302E3
:1029E00003010200020102030202030005030502C3
:1029F00005010400040104030402050007030702A3
:102A000007010600060106030602FFFF090309028B
:102A10000901080008010803080209000B030B0262
:102A20000B010A000A010A030A020B000D030D0242
:102A30000D010C000C010C030C02FFFF07000D0040
:102A400009000F030F020F010F000E000E030E020C
:102A50000E013F065B4F666D7D077F6F3838383853
:102A600038383800200004000600000000093D004E
:102A700000127A000024F4004086510100366E01F5
:102A8000A02A000800000020E00000006C280008D8
:102A9000802B0008E0000020C80400007C2800080B
:102AA0000000000000000000000000000000000026
:102AB0000000000000000000000000000000000016
:102AC0000000000000000000000000000000000006
:102AD00000000000000000000000000000000000F6
:102AE00000000000000000000000000000000000E6
:102AF00000000000000000000000000000000000D6
:102B000000000000000000000000000000000000C5
:102B100000000000000000000000000000000000B5
:102B200000000000000000000000000000000000A5
:102B30000000000000000000000000000000000095
:102B40000000000000000000000000000000000085
:102B50000000000000000000000000000000000075
:102B600000127A0000000000000000000000005089
:102B700000040050000000000400000001000000FC
:04000005080000C12E
:00000001FF
