:020000040800F2
:1000000090050020D9000008110F00088B0B000894
:1000100000000000000000000000000000000000E0
:100020000000000000000000000000008F0F00082A
:1000300000000000000000008D0F0008910F000874
:10004000000000000000000000000000EB000008BD
:10005000EB000008EB000008EB000008EB000008D4
:100060000000000000000000000000000000000090
:10007000EB000008EB000008EB00000800000000A7
:1000800000000000EB00000800000000000000007D
:1000900000000000EB00000800000000EB0000087A
:1000A00000000000EB00000800000000A51300089D
:1000B0000000000000000000000000000000000040
:1000C0000448854600F052F80048004791010008B6
:1000D000C046C046900500200448804704480047B9
:1000E000FEE7FEE7FEE7FEE7FEE7FEE7990F000802
:1000F000C100000830B50B46014600202022012433
:1001000009E00D46D5409D4205D31D469540491B4B
:100110002546954040191546521E002DF1DC30BD94
:1001200070B500242546002801DA01244042002948
:1001300001DA01254942FFF7DDFFAC4200D0404221
:10014000002C00D0494270BDD2B201E00270401CC8
:10015000491EFBD270470022F6E710B513460A4647
:1001600004461946FFF7F0FF204610BD064C012556
:10017000064E05E0E36807CC2B430C3C984710344F
:10018000B442F7D3FFF7A0FFB8150008D815000850
:1001900070B50125ED06002406E0A0002858A10056
:1001A000064A5050601CC4B2302CF6DB01204007D8
:1001B0000349886001F00EF9002070BD00000020A6
:1001C00000ED00E000BFFEE710B50D480D490860E6
:1001D000E1204002486000210A488160C16001615D
:1001E00081610C2141610021C16100200549086243
:1001F000084600F072FA002801D0FFF7E3FF10BDB7
:1002000000380140D800002010B586B0044600BF79
:1002100000BF1448406B0121084312494863084657
:10022000406BC007C00F009000BF00BF00BF600060
:100230000D49085A019001200290002003900220ED
:100240000490A100094A505801A900F027F8620063
:10025000054B995AA200054B9858012200F0F8F876
:1002600006B010BD00100240B0150008C400002008
:1002700070B5044600F0F2F806462546681C0028D2
:1002800002D0054800682D1800BF00F0E7F8801B79
:10029000A842FAD370BD0000D400002070B5034618
:1002A0000022CBE0012696400C683440002C71D02F
:1002B0004D68022D02D04D68122D15D1D508AE0023
:1002C0001D462035A8595507EE0E0F25B5400646A8
:1002D000AE4330465607F60E0D69B5402843D508A3
:1002E000AD001E4620367051186856000325B540F3
:1002F0000646AE4330460D79AD07AD0F5600B5400A
:10030000284318604D68012D08D04D68022D05D096
:100310004D68112D02D04D68122D18D198685600E5
:100320000325B5400646AE4330465600CD68B5407D
:10033000284398605868012595400646AE433046EC
:1003400010264D6835402D09954028435860D868DF
:1003500056000325B5400646AE43304656008D682C
:10036000B5402843D860012636074D683540B54270
:1003700063D1354D9608B600A8599507EE0E0F25A6
:10038000B5400646AE43304605252D07AB4202D1A7
:10039000002506E051E02D4DAB4201D1012500E0E2
:1003A00002259607F60EB5402843274D9608B6005D
:1003B000A851254D203528680546A5432846012625
:1003C00036044D683540B54202D1054625432846DE
:1003D0001D4D2035286068680546A543284601263E
:1003E00076044D683540B54202D10546254328467E
:1003F000154D20356860144D603D28680546A543BD
:100400002846012636054D683540B54202D10546DD
:10041000254328460C4D603D286068680546A54385
:100420002846012676054D683540B54202D105467D
:1004300025432846044D603D6860521C0D68D54038
:10044000002D00D02EE770BD60180240000400505F
:10045000002A01D0816100E0816270470148006894
:1004600070470000CC000020034800680349096879
:100470004018014908607047CC000020D4000020DB
:1004800010B50024032000F009F8002801D0012451
:1004900001E000F033F8204610BD0000F8B5044636
:1004A00000251348006800281ED0114801687D20EF
:1004B000C000FFF71FFE074639460E480068FFF7E9
:1004C00019FE064600F042F800280BD1042C07D292
:1004D00000222146401E00F016F80748046004E0A0
:1004E000012502E0012500E001252846F8BD0000B5
:1004F000D4000020C0000020D000002010B5002053
:10050000FFF782FE10BD70B504460D46164629461B
:10051000204600F0FFFC70BD0148006870470000F5
:10052000C000002000B5FFF7F7FF064989680722E1
:1005300012031140090B8900034A515CC906C90E18
:10054000C84000BD00100240D814000870B5044631
:100550002546681E0949884201D901200CE0681E21
:10056000074948610321081F00F0D4FC002004491A
:10057000886107200861002070BD0000FFFFFF00B8
:1005800000E000E07047FEB504462068056820687A
:10059000C66820684769002001902807000F019075
:1005A000019800280BD120202840002807D02020C7
:1005B0003040002803D0204600F06CFDFEBD0198BD
:1005C000002859D0F807C00F002804D1FF2021309F
:1005D0003040002850D0E807C00F002808D0FF2086
:1005E00001303040002803D0206C012108432064F2
:1005F00004202840002807D0F807C00F002803D0A7
:10060000206C02210843206402202840002807D0E3
:10061000F807C00F002803D0206C04210843206491
:1006200008202840002807D0F807C00F002803D072
:10063000206C082108432064206C00281BD0202057
:100640002840002806D020203040002802D0204634
:1006500000F020FD206C08210840002806D020462C
:1006600000F0DCFC2046FFF78DFF04E02046FFF79A
:1006700089FF00202064A1E710202840002811D025
:100680001020304000280DD000BF002000902068CE
:100690000068009020684068009000BF00BF2046BE
:1006A00000F01AF880202840002807D08020304031
:1006B000002803D0204600F003FE7FE740202840BA
:1006C000002807D040203040002803D0204600F00A
:1006D000B6FC73E700BF71E7704710B50446002C05
:1006E00001D1012010BDA069002800D000E000BFAA
:1006F0003D20005D002805D100213C200155204609
:1007000000F030F824213D2001552068C068012107
:10071000490388432168C860204600F0FFFC206A36
:10072000002802D0204600F05DFC2068006901210D
:10073000C90288432168086120684069082188430C
:10074000216848612068C068012149030843216885
:10075000C8600020206420213D2001553E20015525
:100760000020BFE710B586B00446142101A8FFF7AA
:10077000F2FC00BF2548406B012108432349486330
:100780000846406BC007C00F009000BF00BF00BF0D
:100790000846406B022108431C4948630846406BE9
:1007A00002210840009000BF00BF00BF1748403042
:1007B000006849030843154940310860084600684D
:1007C000012189030840009000BF00BF80200190F4
:1007D000022002900120039002200490082005903E
:1007E00001A905200007FFF759FD04200190022010
:1007F000029001200390022004900020059001A99E
:100800000348FFF74BFD06B010BD0000001002408A
:10081000000400507047FFB583B004460D461746EC
:10082000002001903D20005D202871D1002D01D0D5
:10083000002F02D1012007B0F0BD01210903A068FB
:10084000884208D12069002805D1E807C00F002898
:1008500001D00120EFE700BF3C20005D012801D15D
:100860000220E8E701213C20015500BF0020206460
:1008700021213D200155FFF7F1FD01902786678674
:1008800001210903A068884205D12069002802D10E
:100890000026029502E02E46002002901EE00698F7
:1008A0000090002280212046019B00F042FD00289C
:1008B00001D00320BFE7002E09D102980088C005AF
:1008C000C00D216848600298801C029003E03078D7
:1008D00021684860761C608E401E6086608E00280D
:1008E000DDD106980090002240212046019B00F0B7
:1008F00020FD002801D003209DE720213D20015547
:1009000000BF00213C20015500BF002093E7FFE716
:10091000022090E7704710B5002405E00021204632
:1009200000F0ACF8601CC4B2202CF7D310BD10B599
:1009300000F001F810BD10B5002405E00F2120469D
:1009400000F09CF8601CC4B2202CF7D310BD10B589
:10095000FFF7E1FF10BD08B50020009005E000BFE3
:1009600068460078401CC1B20091684600780628AD
:10097000F5D308BD00B587B0142102A8FFF7EBFB43
:1009800000BF1748406B01210843154948630846DA
:10099000406BC007C00F019000BF00BF012211468D
:1009A00005200007FFF754FD012202210520000762
:1009B000FFF74EFD0122102105200007FFF748FD3B
:1009C0001320029001200390002004900220059043
:1009D00002A905200007FFF761FC07B000BD000079
:1009E0000010024010B5FFF7C5FF022000F00CF820
:1009F000302000F009F8522000F006F8062000F040
:100A000003F8FFF7A4FF10BD10B504460022012132
:100A100005200007FFF71CFD0321042000F081F8EA
:100A20000921204600F07DF801221146052000072B
:100A3000FFF70EFD10BD0000F8B504460D46174641
:100A4000102C01D2042D00D3F8BD0120A840C6B25D
:100A5000002F05D00848005D30430749085504E0E1
:100A60000548005DB043044908550348015D204630
:100A700000F083F800BFE7E77001002070B504467E
:100A80000D46202C00D370BD2807000F0E490855D5
:100A90000022012105200007FFF7DAFC03210520D1
:100AA00000F03FF8A006800E062100F03AF8064953
:100AB000085D042100F00AF8012211460520000714
:100AC000FFF7C6FC00BFDEE77001002070B50546E9
:100AD0000C46012622E00022022105200007FFF734
:100AE000B7FCFFF738FF28463040002801D001202E
:100AF00000E000200246102105200007FFF7A8FCB7
:100B0000FFF729FF0122022105200007FFF7A0FCC3
:100B1000FFF721FF7004060C601EC4B2002CDAD16E
:100B200070BD70B505460C4624E0601E0121814071
:100B30008EB20022022105200007FFF789FCFFF793
:100B40000AFF28463040002801D0012000E00020A4
:100B50000246102105200007FFF77AFCFFF7FBFE95
:100B60000122022105200007FFF772FCFFF7F3FEC8
:100B7000601EC4B2002CD8D170BD70B504460D46BD
:100B800029462046FFF77AFF70BD00BFFEE7FFB59C
:100B900081B005460E46174600240DE0049B9C429A
:100BA00001D1012300E000231A46395D2B19D8B288
:100BB00000F022F9601CC4B2B442EFDB05B0F0BD16
:100BC000FEB505460C461646002D01DA002503E069
:100BD0001848854200DD054616483238854207DB55
:100BE0003120207030206070A070FF2030701FE036
:100BF0000A21681DFFF794FA01900A210198FFF776
:100C00008FFA00900A210198FFF78AFA0F460A210D
:100C10000098FFF785FA303020700A210098FFF71E
:100C20007FFA3031617038463030A070012030706A
:100C3000FEBD000010270000F7B584B00C46174633
:100C40000020019006E02021019821540198401CC9
:100C5000C0B2019001980428F5D3FF2038700498A1
:100C6000002806DB0A210498401DFFF759FA0646C2
:100C700006E00A2104984042401DFFF751FA46421F
:100C8000002E02DA7042039000E00396002E2FDA65
:100C90000398642810DA2D2020700A210398FFF7AA
:100CA0003FFA303060700A210398FFF739FA30318B
:100CB000A1700120387062E00A210398401DFFF7FF
:100CC0002FFA0546632D00DD63252D2020700A21B3
:100CD0002846FFF725FA0A210090FFF721FA303164
:100CE00061700A212846FFF71BFA3031A17046E0F7
:100CF0000A210398FFF714FA05460A210398FFF723
:100D00000FFA0291642D1EDB1E48854200DD054668
:100D100064212846FFF704FA0A210090FFF700FA41
:100D2000303121700A212846FFF7FAF90A21009094
:100D3000FFF7F6F9303161700A212846FFF7F0F924
:100D40003031A1701BE00A2D11DB0A212846FFF784
:100D5000E7F9303020700A212846FFF7E1F93031F9
:100D6000617002983030A0700120387007E028468A
:100D70003030607002983030A0700120387007B0B9
:100D8000F0BD0000E703000010B5FFF7D0FD10BD77
:100D900010B5FFF7DCFD10BD1CB504466A4601A97D
:100DA0002046FFF70DFF6846037801AA03210420BF
:100DB000FFF7EDFE0121024800F06AF81CBD0000BB
:100DC0008A1500081CB504466A4601A92046FFF7AB
:100DD00033FF6846037801AA04210020FFF7D7FEFD
:100DE0000121024800F054F81CBD000088150008DD
:100DF00010B5FFF7CDFF10BD70B505460C46164681
:100E0000302C0BDB392C09DC20463038C0B20A4AC2
:100E1000115C3246284600F011F80CE02D2C05D16B
:100E200032464021284600F009F804E0324600210D
:100E3000284600F003F870BD9E150008F8B5054679
:100E40000E461746072D00D3F8BD002411E02A01F5
:100E50000E4BD2186300D0180122A2403240002A63
:100E600001D0012200E00022114600F011F8601CC0
:100E7000C4B2062CEBDD2901044A891808460E305D
:100E8000394600F005F800BFDEE70000181500083D
:100E900070B504460D462078FF2802D06078FF2800
:100EA00000D170BD617820782A46FFF7C5FD00BFEC
:100EB000F7E7000010B5FFF76BFFFF23094A042195
:100EC0000020FFF764FEFF23074A03210420FFF7F9
:100ED0005EFE01210548FFF7DBFF01210448FFF713
:100EE000D7FF10BDA8150008AC150008881500082C
:100EF0008A15000810B5FFF74BFF55204001FFF79A
:100F000061FF0248FFF748FF10BD00008E1C000083
:100F10007047000010B5002819DA1A4A03071B0FA2
:100F2000083B9B089B00D2588307DC0EFF23A3409D
:100F30009A438B071B0E8407E40EA3401A43114B00
:100F40000407240F083CA408A4001A5118E00E4A14
:100F500003231B02D21883089B00D2588307DC0EA0
:100F6000FF23A3409A438B071B0E8407E40EA34084
:100F70001A43054B032424021B198408A4001A51A8
:100F800010BD00001CED00E000E100E0704770477C
:100F900010B5FFF769FA10BD0E484068000C000458
:100FA0000121490340180C498988C904C90C084328
:100FB00008494860084640680849084006498031A9
:100FC000898CC905C909084302494860C803044916
:100FD0008860704700100240000FFF1FFFFF00FEF7
:100FE00000ED00E04022016A1140002915D001689F
:100FF000496992019143426A114302685161012299
:101000001203416A914208D10168496903225203DF
:101010009143826A11430268516170470168C9684F
:10102000FF22213291430268D16001684969490871
:1010300049000268516120223E210A54704710B5D0
:1010400004462068C068402188432168C860202188
:101050003D2001552046FFF75DFC002010BD00003B
:1010600070B50546002401E0601C84B2285D0028AC
:10107000FAD1002C09D0054B224629460448FFF737
:10108000CAFB002801D0FFF79DF870BD881300004F
:10109000D800002070B504463E20005D22283BD1D8
:1010A00001210903A06888420CD12069002809D1D8
:1010B000656B20684068C005C00D2880606B801C8F
:1010C000606306E020684068C1B2626B501C6063D8
:1010D0001170608F401E80B2608700281AD120688E
:1010E000C068202188432168C8602068C068FF214B
:1010F000013188432168C860206840694008400089
:101100002168486120213E2001552046FFF782FBDF
:10111000002070BD0020FCE70220FAE7FEB504467F
:1011200020680069012149038843E1680843216878
:1011300008612169A068084361690843029020683A
:10114000C0685E490840029908432168C860E069A8
:101150000290206840690121C9028843029908432E
:101160002168486120684069032109028843A16918
:101170000843216848610121C902E06988424ED1D3
:10118000FFF7D0F905466268510019226A431046FC
:10119000FEF7B0FF06466421FEF7ACFF0701626868
:1011A000510019226A431046FEF7A4FF0646626802
:1011B000510019226A431046FEF79CFF64210090FB
:1011C000FEF798FF64214843301AC0003230019086
:1011D000FEF790FFF821084040003F186268510078
:1011E00019226A431046FEF785FF064662685100E1
:1011F00019226A431046FEF77DFF64210090FEF736
:1012000079FF64214843301AC00032300190FEF764
:1012100071FF4007400F3818216888604CE0FFF7E5
:1012200081F905466268910019226A431046FEF76B
:1012300061FF06466421FEF75DFF070162689100C9
:1012400019226A431046FEF755FF06466268910070
:1012500019226A431046FEF74DFF64210090FEF705
:1012600049FF64214843301A000132300190FEF7F3
:1012700041FFF02108403F186268910019226A433B
:101280001046FEF737FF06466268910019226A434E
:101290001046FEF72FFF64210090FEF72BFF64211C
:1012A0004843301A000132300190FEF723FF000757
:1012B000000F381821688860FEBD0000F3E9FFFFC9
:1012C00010B501463D20405C212830D10124240383
:1012D0008868A0420ED1086900280BD1CA6A086844
:1012E00000681088C005C00D0C686060C86A801C6A
:1012F000C86208E0CB6A0868006818780C6860600B
:10130000C86A401CC862488E401E80B248860028C9
:101310000BD10868C0688024A0430C68E0600868AE
:10132000C068402420430C68E060002010BD02200B
:10133000FCE7FFB581B004460D4617460A9E24E03F
:10134000701C002821D0002E05D0FFF787F80499E3
:10135000401AB04219D92068C068FF21A1318843E2
:101360002168C860206840694008400021684861E1
:1013700020213D2001553E20015500BF00213C2089
:10138000015500BF032005B0F0BD2068006828406B
:10139000A84201D1012000E00020B842D0D00020B6
:1013A000F1E7000010B50248FFF7EDF810BD0000AE
:1013B000D800002002E008C8121F08C1002AFAD194
:1013C00070477047002001E001C1121F002AFBD1C5
:1013D00070470000FFF754F8FEF7F6FE15A0FFF780
:1013E0003FFEFFF7FFFAFFF703FD17A0FFF738FEF8
:1013F000FFF7CAFC7D200001FEF73AFF16A0FFF7B9
:101400002FFEFFF7C5FC7D20C000FEF731FF15A0C1
:10141000FFF726FEFFF74EFD1648FEF729FF16A040
:10142000FFF71EFEFFF766FD03E07D20C000FEF71C
:101430001FFFFAE70D0A53797374656D20737461A9
:1014400072740D0A000000004C434420616C6C2053
:101450006F6E0D0A000000004C434420636C656110
:10146000720D0A004C434420383838207465737478
:101470000D0A0000B80B00004C43442066697865F3
:101480006420746573743A2032372E324320373328
:101490002E31250D0A0000000000000000000000B1
:1014A000000000000000000000000000000000003C
:1014B0000000000000000000010000000200000029
:1014C0000300000004000000060000000700000008
:1014D00008000000090000000000000000000000FB
:1014E00000000000000000000100000002000000F9
:1014F000030000000400000000093D0000127A0013
:101500000024F4004086510100366E0100093D00C0
:1015100000093D0000093D00010301020101000036
:1015200000010003000201000303030203010200A3
:101530000201020302020300050305020501040083
:101540000401040304020500070307020701060063
:10155000060106030602FFFF09030902090108004C
:1015600008010803080209000B030B020B010A0023
:101570000A010A030A020B000D030D020D010C0003
:101580000C010C030C02FFFF07000D0009000F0304
:101590000F020F010F000E000E030E020E013F0698
:1015A0005B4F666D7D077F6F3838383838383800C4
:1015B0002000040006000000D815000800000020EC
:1015C000D8000000B4130008B0160008D8000020AE
:1015D000B8040000C4130008000000000000000070
:1015E00000000000000000000000000000000000FB
:1015F00000000000000000000000000000000000EB
:1016000000000000000000000000000000000000DA
:1016100000000000000000000000000000000000CA
:1016200000000000000000000000000000000000BA
:1016300000000000000000000000000000000000AA
:10164000000000000000000000000000000000009A
:10165000000000000000000000000000000000008A
:10166000000000000000000000000000000000007A
:10167000000000000000000000000000000000006A
:10168000000000000000000000000000000000005A
:10169000000000000000000000127A00000000506E
:1016A00000040050000000000400000001000000E1
:04000005080000C12E
:00000001FF
